{
  "contractName": "EmiFactory",
  "abi": [
    {
      "anonymous": false,
      "inputs": [
        {
          "indexed": true,
          "internalType": "address",
          "name": "emiswap",
          "type": "address"
        },
        {
          "indexed": true,
          "internalType": "address",
          "name": "token1",
          "type": "address"
        },
        {
          "indexed": true,
          "internalType": "address",
          "name": "token2",
          "type": "address"
        }
      ],
      "name": "Deployed",
      "type": "event"
    },
    {
      "anonymous": false,
      "inputs": [
        {
          "indexed": true,
          "internalType": "address",
          "name": "previousOwner",
          "type": "address"
        },
        {
          "indexed": true,
          "internalType": "address",
          "name": "newOwner",
          "type": "address"
        }
      ],
      "name": "OwnershipTransferred",
      "type": "event"
    },
    {
      "anonymous": false,
      "inputs": [
        {
          "indexed": true,
          "internalType": "address",
          "name": "admin",
          "type": "address"
        },
        {
          "indexed": false,
          "internalType": "bool",
          "name": "isGranted",
          "type": "bool"
        }
      ],
      "name": "adminGranted",
      "type": "event"
    },
    {
      "inputs": [],
      "name": "MAX_FEE",
      "outputs": [
        {
          "internalType": "uint256",
          "name": "",
          "type": "uint256"
        }
      ],
      "stateMutability": "view",
      "type": "function"
    },
    {
      "inputs": [],
      "name": "addressVault",
      "outputs": [
        {
          "internalType": "address",
          "name": "",
          "type": "address"
        }
      ],
      "stateMutability": "view",
      "type": "function"
    },
    {
      "inputs": [
        {
          "internalType": "uint256",
          "name": "",
          "type": "uint256"
        }
      ],
      "name": "allPools",
      "outputs": [
        {
          "internalType": "contract Emiswap",
          "name": "",
          "type": "address"
        }
      ],
      "stateMutability": "view",
      "type": "function"
    },
    {
      "inputs": [],
      "name": "fee",
      "outputs": [
        {
          "internalType": "uint256",
          "name": "",
          "type": "uint256"
        }
      ],
      "stateMutability": "view",
      "type": "function"
    },
    {
      "inputs": [],
      "name": "feeVault",
      "outputs": [
        {
          "internalType": "uint256",
          "name": "",
          "type": "uint256"
        }
      ],
      "stateMutability": "view",
      "type": "function"
    },
    {
      "inputs": [
        {
          "internalType": "contract Emiswap",
          "name": "",
          "type": "address"
        }
      ],
      "name": "isPool",
      "outputs": [
        {
          "internalType": "bool",
          "name": "",
          "type": "bool"
        }
      ],
      "stateMutability": "view",
      "type": "function"
    },
    {
      "inputs": [],
      "name": "owner",
      "outputs": [
        {
          "internalType": "address",
          "name": "",
          "type": "address"
        }
      ],
      "stateMutability": "view",
      "type": "function"
    },
    {
      "inputs": [
        {
          "internalType": "contract IERC20",
          "name": "",
          "type": "address"
        },
        {
          "internalType": "contract IERC20",
          "name": "",
          "type": "address"
        }
      ],
      "name": "pools",
      "outputs": [
        {
          "internalType": "contract Emiswap",
          "name": "",
          "type": "address"
        }
      ],
      "stateMutability": "view",
      "type": "function"
    },
    {
      "inputs": [],
      "name": "renounceOwnership",
      "outputs": [],
      "stateMutability": "nonpayable",
      "type": "function"
    },
    {
      "inputs": [
        {
          "internalType": "address",
          "name": "newOwner",
          "type": "address"
        }
      ],
      "name": "transferOwnership",
      "outputs": [],
      "stateMutability": "nonpayable",
      "type": "function"
    },
    {
      "inputs": [],
      "name": "getAllPools",
      "outputs": [
        {
          "internalType": "contract Emiswap[]",
          "name": "",
          "type": "address[]"
        }
      ],
      "stateMutability": "view",
      "type": "function"
    },
    {
      "inputs": [
        {
          "internalType": "uint256",
          "name": "newFee",
          "type": "uint256"
        }
      ],
      "name": "setFee",
      "outputs": [],
      "stateMutability": "nonpayable",
      "type": "function"
    },
    {
      "inputs": [
        {
          "internalType": "uint256",
          "name": "newFeeVault",
          "type": "uint256"
        }
      ],
      "name": "setFeeVault",
      "outputs": [],
      "stateMutability": "nonpayable",
      "type": "function"
    },
    {
      "inputs": [
        {
          "internalType": "address",
          "name": "newAddressVault",
          "type": "address"
        }
      ],
      "name": "setaddressVault",
      "outputs": [],
      "stateMutability": "nonpayable",
      "type": "function"
    },
    {
      "inputs": [
        {
          "internalType": "address",
          "name": "newAdmin",
          "type": "address"
        },
        {
          "internalType": "bool",
          "name": "isGranted",
          "type": "bool"
        }
      ],
      "name": "setAdminGrant",
      "outputs": [],
      "stateMutability": "nonpayable",
      "type": "function"
    },
    {
      "inputs": [
        {
          "internalType": "contract IERC20",
          "name": "tokenA",
          "type": "address"
        },
        {
          "internalType": "contract IERC20",
          "name": "tokenB",
          "type": "address"
        }
      ],
      "name": "deploy",
      "outputs": [
        {
          "internalType": "contract Emiswap",
          "name": "pool",
          "type": "address"
        }
      ],
      "stateMutability": "nonpayable",
      "type": "function"
    },
    {
      "inputs": [
        {
          "internalType": "contract IERC20",
          "name": "tokenA",
          "type": "address"
        },
        {
          "internalType": "contract IERC20",
          "name": "tokenB",
          "type": "address"
        }
      ],
      "name": "sortTokens",
      "outputs": [
        {
          "internalType": "contract IERC20",
          "name": "",
          "type": "address"
        },
        {
          "internalType": "contract IERC20",
          "name": "",
          "type": "address"
        }
      ],
      "stateMutability": "pure",
      "type": "function"
    }
  ],
  "bytecode": "0x608060405234801561001057600080fd5b50600061001b61006a565b600080546001600160a01b0319166001600160a01b0383169081178255604051929350917f8be0079c531659141344cd1fd0a4f28419497f9722a3daafe3b4186f6b6457e0908290a35061006e565b3390565b6155518061007d6000396000f3fe608060405234801561001057600080fd5b506004361061011b5760003560e01c8063715018a6116100b2578063d88ff1f411610081578063ddca3f4311610066578063ddca3f43146103c6578063f2fde38b146103ce578063f8d6640c146104015761011b565b8063d88ff1f41461033b578063dd2e272f146103935761011b565b8063715018a6146102e85780638da5cb5b146102f0578063901754d7146102f8578063bc063e1a146103335761011b565b806356929070116100ee578063569290701461023f5780635b16ebb71461024757806369fe0e2d1461028e57806370e9d80a146102ad5761011b565b806341d1de9714610120578063478222c214610166578063544caa5614610180578063545e7c6114610204575b600080fd5b61013d6004803603602081101561013657600080fd5b503561041e565b6040805173ffffffffffffffffffffffffffffffffffffffff9092168252519081900360200190f35b61016e610452565b60408051918252519081900360200190f35b6101bb6004803603604081101561019657600080fd5b5073ffffffffffffffffffffffffffffffffffffffff81358116916020013516610458565b604051808373ffffffffffffffffffffffffffffffffffffffff1681526020018273ffffffffffffffffffffffffffffffffffffffff1681526020019250505060405180910390f35b61013d6004803603604081101561021a57600080fd5b5073ffffffffffffffffffffffffffffffffffffffff813581169160200135166104a6565b61013d610add565b61027a6004803603602081101561025d57600080fd5b503573ffffffffffffffffffffffffffffffffffffffff16610af9565b604080519115158252519081900360200190f35b6102ab600480360360208110156102a457600080fd5b5035610b0e565b005b6102ab600480360360408110156102c357600080fd5b5073ffffffffffffffffffffffffffffffffffffffff81351690602001351515610c07565b6102ab610dbc565b61013d610ed3565b61013d6004803603604081101561030e57600080fd5b5073ffffffffffffffffffffffffffffffffffffffff81358116916020013516610eef565b61016e610f22565b610343610f2d565b60408051602080825283518183015283519192839290830191858101910280838360005b8381101561037f578181015183820152602001610367565b505050509050019250505060405180910390f35b6102ab600480360360208110156103a957600080fd5b503573ffffffffffffffffffffffffffffffffffffffff16610f9c565b61016e6110e3565b6102ab600480360360208110156103e457600080fd5b503573ffffffffffffffffffffffffffffffffffffffff166110e9565b6102ab6004803603602081101561041757600080fd5b503561128b565b6005818154811061042b57fe5b60009182526020909120015473ffffffffffffffffffffffffffffffffffffffff16905081565b60035481565b6000808273ffffffffffffffffffffffffffffffffffffffff168473ffffffffffffffffffffffffffffffffffffffff16101561049957508290508161049f565b50819050825b9250929050565b600073ffffffffffffffffffffffffffffffffffffffff8316158015906104e2575073ffffffffffffffffffffffffffffffffffffffff821615155b61054d57604080517f08c379a000000000000000000000000000000000000000000000000000000000815260206004820152601560248201527f466163746f72793a6e6f20307820616464726573730000000000000000000000604482015290519081900360640190fd5b8173ffffffffffffffffffffffffffffffffffffffff168373ffffffffffffffffffffffffffffffffffffffff1614156105e857604080517f08c379a000000000000000000000000000000000000000000000000000000000815260206004820152601660248201527f466163746f72793a6e6f2073616d6520746f6b656e7300000000000000000000604482015290519081900360640190fd5b73ffffffffffffffffffffffffffffffffffffffff83811660009081526007602090815260408083208685168452909152902054161561068957604080517f08c379a000000000000000000000000000000000000000000000000000000000815260206004820152601b60248201527f466163746f72793a706f6f6c20616c7265616479206578697374730000000000604482015290519081900360640190fd5b6000806106968585610458565b60408051600280825260608083018452949650929450919060208301908036833701905050905082816000815181106106cb57fe5b602002602001019073ffffffffffffffffffffffffffffffffffffffff16908173ffffffffffffffffffffffffffffffffffffffff1681525050818160018151811061071357fe5b73ffffffffffffffffffffffffffffffffffffffff909216602092830291909101820152604051606091610748908201611382565b6020820181038252601f19601f820116604052506040516020018082805190602001908083835b602083106107ac57805182527fffffffffffffffffffffffffffffffffffffffffffffffffffffffffffffffe0909201916020918201910161076f565b51815160209384036101000a7fffffffffffffffffffffffffffffffffffffffffffffffffffffffffffffffff018019909216911617905260408051929094018281037fffffffffffffffffffffffffffffffffffffffffffffffffffffffffffffffe001835280855260608b811b7fffffffffffffffffffffffffffffffffffffffff00000000000000000000000090811683850152908b901b1660348201528451808203602801815260489091019094528351938101939093208151919650945084935091850190506000f56040517fa224cee700000000000000000000000000000000000000000000000000000000815260206004820181815286516024840152865193995073ffffffffffffffffffffffffffffffffffffffff8a169363a224cee79388938392604490920191818601910280838360005b838110156109005781810151838201526020016108e8565b5050505090500192505050600060405180830381600087803b15801561092557600080fd5b505af1158015610939573d6000803e3d6000fd5b505050508573ffffffffffffffffffffffffffffffffffffffff1663f2fde38b610961610ed3565b6040518263ffffffff1660e01b8152600401808273ffffffffffffffffffffffffffffffffffffffff168152602001915050600060405180830381600087803b1580156109ad57600080fd5b505af11580156109c1573d6000803e3d6000fd5b5050505073ffffffffffffffffffffffffffffffffffffffff85811660008181526007602081815260408084208a87168086529083528185208054978e167fffffffffffffffffffffffff00000000000000000000000000000000000000009889168117909155938352818520868652835281852080548816851790556005805460018181019092557f036b6384b5eca791c62761152d0c79bb0604c104a5fb6f4eb0703f3154bb3db00180549098168517909755838552600690925280842080547fffffffffffffffffffffffffffffffffffffffffffffffffffffffffffffff0016909617909555935190917fc95935a66d15e0da5e412aca0ad27ae891d20b2fb91cf3994b6a3bf2b817808291a4505050505092915050565b60045473ffffffffffffffffffffffffffffffffffffffff1681565b60066020526000908152604090205460ff1681565b3360009081526001602052604090205460ff16610b8c57604080517f08c379a000000000000000000000000000000000000000000000000000000000815260206004820152601a60248201527f41646d696e3a2063616c6c6572206973206e6f742061646d696e000000000000604482015290519081900360640190fd5b660aa87bee538000811115610c0257604080517f08c379a000000000000000000000000000000000000000000000000000000000815260206004820152601e60248201527f466163746f72793a206665652073686f756c64206265203c3d20302e33250000604482015290519081900360640190fd5b600255565b610c0f61137e565b73ffffffffffffffffffffffffffffffffffffffff16610c2d610ed3565b73ffffffffffffffffffffffffffffffffffffffff1614610caf57604080517f08c379a000000000000000000000000000000000000000000000000000000000815260206004820181905260248201527f4f776e61626c653a2063616c6c6572206973206e6f7420746865206f776e6572604482015290519081900360640190fd5b73ffffffffffffffffffffffffffffffffffffffff8216610d3157604080517f08c379a000000000000000000000000000000000000000000000000000000000815260206004820152600f60248201527f41646d696e206164647265737320300000000000000000000000000000000000604482015290519081900360640190fd5b73ffffffffffffffffffffffffffffffffffffffff821660008181526001602090815260409182902080547fffffffffffffffffffffffffffffffffffffffffffffffffffffffffffffff0016851515908117909155825190815291517f4276803527e4575323610c0e0732b05a73c2540d9acd67e46a198ab5661bdb4f9281900390910190a25050565b610dc461137e565b73ffffffffffffffffffffffffffffffffffffffff16610de2610ed3565b73ffffffffffffffffffffffffffffffffffffffff1614610e6457604080517f08c379a000000000000000000000000000000000000000000000000000000000815260206004820181905260248201527f4f776e61626c653a2063616c6c6572206973206e6f7420746865206f776e6572604482015290519081900360640190fd5b6000805460405173ffffffffffffffffffffffffffffffffffffffff909116907f8be0079c531659141344cd1fd0a4f28419497f9722a3daafe3b4186f6b6457e0908390a3600080547fffffffffffffffffffffffff0000000000000000000000000000000000000000169055565b60005473ffffffffffffffffffffffffffffffffffffffff1690565b600760209081526000928352604080842090915290825290205473ffffffffffffffffffffffffffffffffffffffff1681565b660aa87bee53800081565b60606005805480602002602001604051908101604052809291908181526020018280548015610f9257602002820191906000526020600020905b815473ffffffffffffffffffffffffffffffffffffffff168152600190910190602001808311610f67575b5050505050905090565b3360009081526001602052604090205460ff1661101a57604080517f08c379a000000000000000000000000000000000000000000000000000000000815260206004820152601a60248201527f41646d696e3a2063616c6c6572206973206e6f742061646d696e000000000000604482015290519081900360640190fd5b73ffffffffffffffffffffffffffffffffffffffff811661109c57604080517f08c379a000000000000000000000000000000000000000000000000000000000815260206004820152600e60248201527f466163746f72793a207661756c74000000000000000000000000000000000000604482015290519081900360640190fd5b600480547fffffffffffffffffffffffff00000000000000000000000000000000000000001673ffffffffffffffffffffffffffffffffffffffff92909216919091179055565b60025481565b6110f161137e565b73ffffffffffffffffffffffffffffffffffffffff1661110f610ed3565b73ffffffffffffffffffffffffffffffffffffffff161461119157604080517f08c379a000000000000000000000000000000000000000000000000000000000815260206004820181905260248201527f4f776e61626c653a2063616c6c6572206973206e6f7420746865206f776e6572604482015290519081900360640190fd5b73ffffffffffffffffffffffffffffffffffffffff81166111fe576040517f08c379a0000000000000000000000000000000000000000000000000000000008152600401808060200182810382526026815260200180620054f66026913960400191505060405180910390fd5b6000805460405173ffffffffffffffffffffffffffffffffffffffff808516939216917f8be0079c531659141344cd1fd0a4f28419497f9722a3daafe3b4186f6b6457e091a3600080547fffffffffffffffffffffffff00000000000000000000000000000000000000001673ffffffffffffffffffffffffffffffffffffffff92909216919091179055565b3360009081526001602052604090205460ff1661130957604080517f08c379a000000000000000000000000000000000000000000000000000000000815260206004820152601a60248201527f41646d696e3a2063616c6c6572206973206e6f742061646d696e000000000000604482015290519081900360640190fd5b600254811061137957604080517f08c379a000000000000000000000000000000000000000000000000000000000815260206004820152601260248201527f466163746f72793a207661756c74206665650000000000000000000000000000604482015290519081900360640190fd5b600355565b3390565b61416580620013918339019056fe60806040523480156200001157600080fd5b50604080518082018252601081526f22b6b4b9bbb0b8102628103a37b5b2b760811b6020808301918252835180850190945260068452650454d49204c560d41b908401528151919291620000689160039162000109565b5080516200007e90600490602084019062000109565b50506005805460ff1916601217905550600160065560006200009f62000105565b600780546001600160a01b0319166001600160a01b038316908117909155604051919250906000907f8be0079c531659141344cd1fd0a4f28419497f9722a3daafe3b4186f6b6457e0908290a350600880546001600160a01b03191633179055620001a5565b3390565b828054600181600116156101000203166002900490600052602060002090601f016020900481019282601f106200014c57805160ff19168380011785556200017c565b828001600101855582156200017c579182015b828111156200017c5782518255916020019190600101906200015f565b506200018a9291506200018e565b5090565b5b808211156200018a57600081556001016200018f565b613fb080620001b56000396000f3fe608060405234801561001057600080fd5b506004361061025c5760003560e01c80637dc2038211610145578063b21b5a21116100bd578063d7d3aab51161008c578063ddca3f4311610071578063ddca3f43146109d7578063e7ff42c9146109df578063f2fde38b14610a125761025c565b8063d7d3aab514610969578063dd62ed3e1461099c5761025c565b8063b21b5a2114610949578063baf13a0a14610951578063c45a015514610959578063d73792a9146109615761025c565b8063a224cee711610114578063a9059cbb116100f9578063a9059cbb14610844578063aa6ca8081461087d578063b1ec4c40146108d55761025c565b8063a224cee71461079b578063a457c2d71461080b5761025c565b80637dc203821461065c5780637e067a60146106b35780638da5cb5b1461078b57806395d89b41146107935761025c565b806348d67e1b116101d85780635ed9156d116101a757806370a082311161018c57806370a08231146105e8578063715018a61461061b57806378e3214f146106235761025c565b80635ed9156d146105455780636edc2c09146105b55761025c565b806348d67e1b146104765780634f64b2be1461047e57806356929070146104c45780635915d806146104cc5761025c565b80631e1401f81161022f578063313ce56711610214578063313ce567146104175780633950935114610435578063478222c21461046e5761025c565b80631e1401f81461037857806323b872dd146103d45761025c565b806306fdde0314610261578063095ea7b3146102de57806318160ddd1461032b57806319f3736114610345575b600080fd5b610269610a45565b6040805160208082528351818301528351919283929083019185019080838360005b838110156102a357818101518382015260200161028b565b50505050905090810190601f1680156102d05780820380516001836020036101000a031916815260200191505b509250505060405180910390f35b610317600480360360408110156102f457600080fd5b5073ffffffffffffffffffffffffffffffffffffffff8135169060200135610af9565b604080519115158252519081900360200190f35b610333610b17565b60408051918252519081900360200190f35b6103176004803603602081101561035b57600080fd5b503573ffffffffffffffffffffffffffffffffffffffff16610b1d565b6103bb6004803603606081101561038e57600080fd5b5073ffffffffffffffffffffffffffffffffffffffff813581169160208101359091169060400135610b32565b6040805192835260208301919091528051918290030190f35b610317600480360360608110156103ea57600080fd5b5073ffffffffffffffffffffffffffffffffffffffff813581169160208101359091169060400135610b5e565b61041f610c00565b6040805160ff9092168252519081900360200190f35b6103176004803603604081101561044b57600080fd5b5073ffffffffffffffffffffffffffffffffffffffff8135169060200135610c09565b610333610c64565b610333610d00565b61049b6004803603602081101561049457600080fd5b5035610d06565b6040805173ffffffffffffffffffffffffffffffffffffffff9092168252519081900360200190f35b61049b610d3a565b610543600480360360408110156104e257600080fd5b8135919081019060408101602082013564010000000081111561050457600080fd5b82018360208201111561051657600080fd5b8035906020019184602083028401116401000000008311171561053857600080fd5b509092509050610da5565b005b6105786004803603602081101561055b57600080fd5b503573ffffffffffffffffffffffffffffffffffffffff16611005565b604080517affffffffffffffffffffffffffffffffffffffffffffffffffffff909316835264ffffffffff90911660208301528051918290030190f35b610578600480360360208110156105cb57600080fd5b503573ffffffffffffffffffffffffffffffffffffffff1661105c565b610333600480360360208110156105fe57600080fd5b503573ffffffffffffffffffffffffffffffffffffffff166110b3565b6105436110db565b6105436004803603604081101561063957600080fd5b5073ffffffffffffffffffffffffffffffffffffffff81351690602001356111f2565b610333600480360360c081101561067257600080fd5b5073ffffffffffffffffffffffffffffffffffffffff81358116916020810135821691604082013591606081013591608082013581169160a001351661150a565b610333600480360360608110156106c957600080fd5b8101906020810181356401000000008111156106e457600080fd5b8201836020820111156106f657600080fd5b8035906020019184602083028401116401000000008311171561071857600080fd5b91939092909160208101903564010000000081111561073657600080fd5b82018360208201111561074857600080fd5b8035906020019184602083028401116401000000008311171561076a57600080fd5b91935091503573ffffffffffffffffffffffffffffffffffffffff16611b5b565b61049b6122bb565b6102696122d7565b610543600480360360208110156107b157600080fd5b8101906020810181356401000000008111156107cc57600080fd5b8201836020820111156107de57600080fd5b8035906020019184602083028401116401000000008311171561080057600080fd5b509092509050612356565b6103176004803603604081101561082157600080fd5b5073ffffffffffffffffffffffffffffffffffffffff813516906020013561258d565b6103176004803603604081101561085a57600080fd5b5073ffffffffffffffffffffffffffffffffffffffff8135169060200135612602565b610885612616565b60408051602080825283518183015283519192839290830191858101910280838360005b838110156108c15781810151838201526020016108a9565b505050509050019250505060405180910390f35b610908600480360360208110156108eb57600080fd5b503573ffffffffffffffffffffffffffffffffffffffff16612684565b60405180836fffffffffffffffffffffffffffffffff168152602001826fffffffffffffffffffffffffffffffff1681526020019250505060405180910390f35b6103336126c0565b6103336126c5565b61049b6126cb565b6103336126e7565b6103336004803603602081101561097f57600080fd5b503573ffffffffffffffffffffffffffffffffffffffff166126f3565b610333600480360360408110156109b257600080fd5b5073ffffffffffffffffffffffffffffffffffffffff813581169160200135166127a9565b6103336127e1565b610333600480360360208110156109f557600080fd5b503573ffffffffffffffffffffffffffffffffffffffff1661284c565b61054360048036036020811015610a2857600080fd5b503573ffffffffffffffffffffffffffffffffffffffff16612902565b60038054604080516020601f60027fffffffffffffffffffffffffffffffffffffffffffffffffffffffffffffffff610100600188161502019095169490940493840181900481028201810190925282815260609390929091830182828015610aef5780601f10610ac457610100808354040283529160200191610aef565b820191906000526020600020905b815481529060010190602001808311610ad257829003601f168201915b5050505050905090565b6000610b0d610b06612aa4565b8484612aa8565b5060015b92915050565b60025490565b600a6020526000908152604090205460ff1681565b600080610b52858585610b44896126f3565b610b4d8961284c565b612bef565b91509150935093915050565b6000610b6b848484612d46565b610bf584610b77612aa4565b610bf085604051806060016040528060288152602001613e9a6028913973ffffffffffffffffffffffffffffffffffffffff8a16600090815260016020526040812090610bc2612aa4565b73ffffffffffffffffffffffffffffffffffffffff1681526020810191909152604001600020549190612f16565b612aa8565b5060015b9392505050565b60055460ff1690565b6000610b0d610c16612aa4565b84610bf08560016000610c27612aa4565b73ffffffffffffffffffffffffffffffffffffffff908116825260208083019390935260409182016000908120918c168152925290205490612fc7565b600854604080517f478222c2000000000000000000000000000000000000000000000000000000008152905160009273ffffffffffffffffffffffffffffffffffffffff169163478222c2916004808301926020929190829003018186803b158015610ccf57600080fd5b505afa158015610ce3573d6000803e3d6000fd5b505050506040513d6020811015610cf957600080fd5b5051905090565b61012c90565b60098181548110610d1357fe5b60009182526020909120015473ffffffffffffffffffffffffffffffffffffffff16905081565b600854604080517f56929070000000000000000000000000000000000000000000000000000000008152905160009273ffffffffffffffffffffffffffffffffffffffff16916356929070916004808301926020929190829003018186803b158015610ccf57600080fd5b60026006541415610e1757604080517f08c379a000000000000000000000000000000000000000000000000000000000815260206004820152601f60248201527f5265656e7472616e637947756172643a207265656e7472616e742063616c6c00604482015290519081900360640190fd5b60026006556000610e26610b17565b9050610e32338561303b565b60005b600954811015610fc357600060098281548110610e4e57fe5b600091825260208220015473ffffffffffffffffffffffffffffffffffffffff169150610e7b8230613185565b90506000610e9385610e8d848b61324d565b906132c0565b9050610eb673ffffffffffffffffffffffffffffffffffffffff84163383613341565b8584101580610ed75750868685818110610ecc57fe5b905060200201358110155b610f4257604080517f08c379a000000000000000000000000000000000000000000000000000000000815260206004820152601d60248201527f456d69737761703a20726573756c74206973206e6f7420656e6f756768000000604482015290519081900360640190fd5b610f7d82610f50878b6133bf565b73ffffffffffffffffffffffffffffffffffffffff86166000908152600c60205260409020919088613436565b610fb882610f8b878b6133bf565b73ffffffffffffffffffffffffffffffffffffffff86166000908152600d60205260409020919088613436565b505050600101610e35565b5060408051858152905133917f7084f5476618d8e60b11ef0d7d3f06914655adb8793e28ff7f018d4c76d505d5919081900360200190a2505060016006555050565b600d602052600090815260409020547affffffffffffffffffffffffffffffffffffffffffffffffffffff8116907b01000000000000000000000000000000000000000000000000000000900464ffffffffff1682565b600c602052600090815260409020547affffffffffffffffffffffffffffffffffffffffffffffffffffff8116907b01000000000000000000000000000000000000000000000000000000900464ffffffffff1682565b73ffffffffffffffffffffffffffffffffffffffff1660009081526020819052604090205490565b6110e3612aa4565b73ffffffffffffffffffffffffffffffffffffffff166111016122bb565b73ffffffffffffffffffffffffffffffffffffffff161461118357604080517f08c379a000000000000000000000000000000000000000000000000000000000815260206004820181905260248201527f4f776e61626c653a2063616c6c6572206973206e6f7420746865206f776e6572604482015290519081900360640190fd5b60075460405160009173ffffffffffffffffffffffffffffffffffffffff16907f8be0079c531659141344cd1fd0a4f28419497f9722a3daafe3b4186f6b6457e0908390a3600780547fffffffffffffffffffffffff0000000000000000000000000000000000000000169055565b6002600654141561126457604080517f08c379a000000000000000000000000000000000000000000000000000000000815260206004820152601f60248201527f5265656e7472616e637947756172643a207265656e7472616e742063616c6c00604482015290519081900360640190fd5b6002600655611271612aa4565b73ffffffffffffffffffffffffffffffffffffffff1661128f6122bb565b73ffffffffffffffffffffffffffffffffffffffff161461131157604080517f08c379a000000000000000000000000000000000000000000000000000000000815260206004820181905260248201527f4f776e61626c653a2063616c6c6572206973206e6f7420746865206f776e6572604482015290519081900360640190fd5b60095460609067ffffffffffffffff8111801561132d57600080fd5b50604051908082528060200260200182016040528015611357578160200160208202803683370190505b50905060005b81518110156113be5761139f306009838154811061137757fe5b60009182526020909120015473ffffffffffffffffffffffffffffffffffffffff1690613185565b8282815181106113ab57fe5b602090810291909101015260010161135d565b506113e073ffffffffffffffffffffffffffffffffffffffff84163384613341565b60005b8151811015611486578181815181106113f857fe5b6020026020010151611411306009848154811061137757fe5b101561147e57604080517f08c379a000000000000000000000000000000000000000000000000000000000815260206004820152601660248201527f456d69737761703a206163636573732064656e69656400000000000000000000604482015290519081900360640190fd5b6001016113e3565b506103e8611493306110b3565b101561150057604080517f08c379a000000000000000000000000000000000000000000000000000000000815260206004820152601660248201527f456d69737761703a206163636573732064656e69656400000000000000000000604482015290519081900360640190fd5b5050600160065550565b60006002600654141561157e57604080517f08c379a000000000000000000000000000000000000000000000000000000000815260206004820152601f60248201527f5265656e7472616e637947756172643a207265656e7472616e742063616c6c00604482015290519081900360640190fd5b600260065573ffffffffffffffffffffffffffffffffffffffff871661160557604080517f08c379a000000000000000000000000000000000000000000000000000000000815260206004820152601c60248201527f456d69737761703a206f6e6c7920746f6b656e7320616c6c6f77656400000000604482015290519081900360640190fd5b61160d613cc6565b604080518082019091528061163873ffffffffffffffffffffffffffffffffffffffff8b1630613185565b815260200161165d73ffffffffffffffffffffffffffffffffffffffff8a1630613185565b9052805173ffffffffffffffffffffffffffffffffffffffff8a166000908152600c602090815260408083208151808301909252547affffffffffffffffffffffffffffffffffffffffffffffffffffff811682527b01000000000000000000000000000000000000000000000000000000900464ffffffffff1691810191909152929350916116f8916116f191906134c4565b8351613542565b60208381015173ffffffffffffffffffffffffffffffffffffffff8b166000908152600d835260408082208151808301909252547affffffffffffffffffffffffffffffffffffffffffffffffffffff811682527b01000000000000000000000000000000000000000000000000000000900464ffffffffff169381019390935292935061179391611789916134c4565b8460200151613559565b90506117b573ffffffffffffffffffffffffffffffffffffffff8b1689613568565b82516000906117e4906117de73ffffffffffffffffffffffffffffffffffffffff8e1630613185565b906133bf565b905060006117f58c8c848787612bef565b909650905085158015906118095750888610155b61187457604080517f08c379a000000000000000000000000000000000000000000000000000000000815260206004820152601d60248201527f456d69737761703a2072657475726e206973206e6f7420656e6f756768000000604482015290519081900360640190fd5b61189573ffffffffffffffffffffffffffffffffffffffff8c168988613341565b80156118c4576118c46118a6610d3a565b73ffffffffffffffffffffffffffffffffffffffff8d169083613341565b84518414611904576119046118d98584612fc7565b73ffffffffffffffffffffffffffffffffffffffff8e166000908152600c6020526040902090613656565b846020015183146119475761194761191c84886133bf565b73ffffffffffffffffffffffffffffffffffffffff8d166000908152600d6020526040902090613656565b845173ffffffffffffffffffffffffffffffffffffffff8d166000908152600d60205260409020611977916136c6565b60208086015173ffffffffffffffffffffffffffffffffffffffff8d166000908152600c90925260409091206119ac916136c6565b8a73ffffffffffffffffffffffffffffffffffffffff168c73ffffffffffffffffffffffffffffffffffffffff163373ffffffffffffffffffffffffffffffffffffffff167f86c49b5d8577da08444947f1427d23ef191cfabf2c0788f93324d79e926a9302858a8a600001518b60200151611a26610b17565b604080519586526020860194909452848401929092526060840152608083015273ffffffffffffffffffffffffffffffffffffffff8d1660a0830152519081900360c00190a460408051828152905173ffffffffffffffffffffffffffffffffffffffff8a169133917f2ff1ad11b6e7211d4d0cc86e3a449ecc036fd7abfe355401bdb6304dbf9b7a2b9181900360200190a35073ffffffffffffffffffffffffffffffffffffffff909a166000908152600b6020526040902080547001000000000000000000000000000000006fffffffffffffffffffffffffffffffff808316909d018d167fffffffffffffffffffffffffffffffff00000000000000000000000000000000909216919091178181048d1687018d169091029b169a909a17909955505060016006559695505050505050565b600060026006541415611bcf57604080517f08c379a000000000000000000000000000000000000000000000000000000000815260206004820152601f60248201527f5265656e7472616e637947756172643a207265656e7472616e742063616c6c00604482015290519081900360640190fd5b6002600655600980546040805160208084028201810190925282815260609390929091830182828015611c3857602002820191906000526020600020905b815473ffffffffffffffffffffffffffffffffffffffff168152600190910190602001808311611c0d575b5093945050508715801592509050611c505750805186145b611cbb57604080517f08c379a000000000000000000000000000000000000000000000000000000000815260206004820152601d60248201527f456d69737761703a2077726f6e6720616d6f756e7473206c656e677468000000604482015290519081900360640190fd5b600087876000818110611cca57fe5b90506020020135118015611cf15750600087876001818110611ce857fe5b90506020020135115b611d5c57604080517f08c379a000000000000000000000000000000000000000000000000000000000815260206004820152601a60248201527f456d69737761703a2077726f6e672076616c7565207573616765000000000000604482015290519081900360640190fd5b60608667ffffffffffffffff81118015611d7557600080fd5b50604051908082528060200260200182016040528015611d9f578160200160208202803683370190505b50905060005b8151811015611e0957611dea30848381518110611dbe57fe5b602002602001015173ffffffffffffffffffffffffffffffffffffffff1661318590919063ffffffff16565b828281518110611df657fe5b6020908102919091010152600101611da5565b506000611e14610b17565b905080611e6d57611e286103e8606361324d565b9350611e36306103e861372d565b60005b88811015611e6757611e5d858b8b84818110611e5157fe5b90506020020135613542565b9450600101611e39565b50611eec565b7fffffffffffffffffffffffffffffffffffffffffffffffffffffffffffffffff935060005b88811015611eea57611ee085611edb858481518110611eae57fe5b6020026020010151610e8d8e8e87818110611ec557fe5b905060200201358761324d90919063ffffffff16565b613559565b9450600101611e93565b505b8360005b898110156120fc5760008b8b83818110611f0657fe5b9050602002013511611f7957604080517f08c379a000000000000000000000000000000000000000000000000000000000815260206004820152601760248201527f456d69737761703a20616d6f756e74206973207a65726f000000000000000000604482015290519081900360640190fd5b60008315611fbd57611fb884610e8d60018703611fb2878a8881518110611f9c57fe5b602002602001015161324d90919063ffffffff16565b90612fc7565b611fd1565b8b8b83818110611fc957fe5b905060200201355b9050898983818110611fdf57fe5b9050602002013581101561205457604080517f08c379a000000000000000000000000000000000000000000000000000000000815260206004820152601e60248201527f456d69737761703a206d696e416d6f756e74206e6f7420726561636865640000604482015290519081900360640190fd5b6120908187848151811061206457fe5b602002602001015173ffffffffffffffffffffffffffffffffffffffff1661356890919063ffffffff16565b83156120f35760006120bf8684815181106120a757fe5b60200260200101516117de308a8781518110611dbe57fe5b90506120ef88611edb8886815181106120d457fe5b6020026020010151610e8d858a61324d90919063ffffffff16565b9750505b50600101611ef0565b5081156121e05760005b898110156121de5761219b84828151811061211d57fe5b60200260200101516121388886612fc790919063ffffffff16565b85600d60008a878151811061214957fe5b602002602001015173ffffffffffffffffffffffffffffffffffffffff1673ffffffffffffffffffffffffffffffffffffffff168152602001908152602001600020613436909392919063ffffffff16565b6121d68482815181106121aa57fe5b60200260200101516121c58886612fc790919063ffffffff16565b85600c60008a878151811061214957fe5b600101612106565b505b6000851161224f57604080517f08c379a000000000000000000000000000000000000000000000000000000000815260206004820152601e60248201527f456d6e69737761703a20726573756c74206973206e6f7420656e6f7567680000604482015290519081900360640190fd5b612259338661372d565b6040805186815273ffffffffffffffffffffffffffffffffffffffff88166020820152815133927fb4e1304f97b5093610f51b33ddab6622388422e2dac138b0d32f93dcfbd39edf928290030190a25050600160065550909695505050505050565b60075473ffffffffffffffffffffffffffffffffffffffff1690565b60048054604080516020601f60027fffffffffffffffffffffffffffffffffffffffffffffffffffffffffffffffff610100600188161502019095169490940493840181900481028201810190925282815260609390929091830182828015610aef5780601f10610ac457610100808354040283529160200191610aef565b60085473ffffffffffffffffffffffffffffffffffffffff1633146123dc57604080517f08c379a000000000000000000000000000000000000000000000000000000000815260206004820152601260248201527f456d69737761703a20464f5242494444454e0000000000000000000000000000604482015290519081900360640190fd5b6002811461244b57604080517f08c379a000000000000000000000000000000000000000000000000000000000815260206004820152601e60248201527f456d69737761703a206f6e6c79203220746f6b656e7320616c6c6f7765640000604482015290519081900360640190fd5b61245760098383613ce0565b5060005b8181101561258857600a600084848481811061247357fe5b6020908102929092013573ffffffffffffffffffffffffffffffffffffffff168352508101919091526040016000205460ff161561251257604080517f08c379a000000000000000000000000000000000000000000000000000000000815260206004820152601960248201527f456d69737761703a206475706c696361746520746f6b656e7300000000000000604482015290519081900360640190fd5b6001600a600085858581811061252457fe5b6020908102929092013573ffffffffffffffffffffffffffffffffffffffff1683525081019190915260400160002080547fffffffffffffffffffffffffffffffffffffffffffffffffffffffffffffff001691151591909117905560010161245b565b505050565b6000610b0d61259a612aa4565b84610bf085604051806060016040528060258152602001613f5660259139600160006125c4612aa4565b73ffffffffffffffffffffffffffffffffffffffff908116825260208083019390935260409182016000908120918d16815292529020549190612f16565b6000610b0d61260f612aa4565b8484612d46565b60606009805480602002602001604051908101604052809291908181526020018280548015610aef57602002820191906000526020600020905b815473ffffffffffffffffffffffffffffffffffffffff168152600190910190602001808311612650575050505050905090565b600b602052600090815260409020546fffffffffffffffffffffffffffffffff8082169170010000000000000000000000000000000090041682565b601481565b6103e881565b60085473ffffffffffffffffffffffffffffffffffffffff1681565b670de0b6b3a764000081565b60008061271673ffffffffffffffffffffffffffffffffffffffff841630613185565b73ffffffffffffffffffffffffffffffffffffffff84166000908152600c60209081526040918290208251808401909352547affffffffffffffffffffffffffffffffffffffffffffffffffffff811683527b01000000000000000000000000000000000000000000000000000000900464ffffffffff1690820152909150610bf9906127a390836134c4565b82613542565b73ffffffffffffffffffffffffffffffffffffffff918216600090815260016020908152604080832093909416825291909152205490565b600854604080517fddca3f43000000000000000000000000000000000000000000000000000000008152905160009273ffffffffffffffffffffffffffffffffffffffff169163ddca3f43916004808301926020929190829003018186803b158015610ccf57600080fd5b60008061286f73ffffffffffffffffffffffffffffffffffffffff841630613185565b73ffffffffffffffffffffffffffffffffffffffff84166000908152600d60209081526040918290208251808401909352547affffffffffffffffffffffffffffffffffffffffffffffffffffff811683527b01000000000000000000000000000000000000000000000000000000900464ffffffffff1690820152909150610bf9906128fc90836134c4565b82613559565b61290a612aa4565b73ffffffffffffffffffffffffffffffffffffffff166129286122bb565b73ffffffffffffffffffffffffffffffffffffffff16146129aa57604080517f08c379a000000000000000000000000000000000000000000000000000000000815260206004820181905260248201527f4f776e61626c653a2063616c6c6572206973206e6f7420746865206f776e6572604482015290519081900360640190fd5b73ffffffffffffffffffffffffffffffffffffffff8116612a16576040517f08c379a0000000000000000000000000000000000000000000000000000000008152600401808060200182810382526026815260200180613de56026913960400191505060405180910390fd5b60075460405173ffffffffffffffffffffffffffffffffffffffff8084169216907f8be0079c531659141344cd1fd0a4f28419497f9722a3daafe3b4186f6b6457e090600090a3600780547fffffffffffffffffffffffff00000000000000000000000000000000000000001673ffffffffffffffffffffffffffffffffffffffff92909216919091179055565b3390565b73ffffffffffffffffffffffffffffffffffffffff8316612b14576040517f08c379a0000000000000000000000000000000000000000000000000000000008152600401808060200182810382526024815260200180613f086024913960400191505060405180910390fd5b73ffffffffffffffffffffffffffffffffffffffff8216612b80576040517f08c379a0000000000000000000000000000000000000000000000000000000008152600401808060200182810382526022815260200180613e0b6022913960400191505060405180910390fd5b73ffffffffffffffffffffffffffffffffffffffff808416600081815260016020908152604080832094871680845294825291829020859055815185815291517f8c5be1e5ebec7d5bd14f71427d1e84f3dd0314c0f7b2291e5b200ac8c7c3b9259281900390910190a3505050565b73ffffffffffffffffffffffffffffffffffffffff85166000908152600a6020526040812054819060ff168015612c4b575073ffffffffffffffffffffffffffffffffffffffff86166000908152600a602052604090205460ff165b8015612c8357508573ffffffffffffffffffffffffffffffffffffffff168773ffffffffffffffffffffffffffffffffffffffff1614155b8015612c8f5750600085115b15612d3c576000612cbe612cb7670de0b6b3a7640000610e8d612cb06127e1565b8a9061324d565b87906133bf565b90506000612cd9612ccf8784612fc7565b610e8d848861324d565b90506000612cf4612cea888a612fc7565b610e8d8a8961324d565b90506000612d00610c64565b15612d2a57612d25612d1b612d13610c64565b610e8d6127e1565b610e8d84866133bf565b612d2d565b60005b929550919350612d3c92505050565b9550959350505050565b73ffffffffffffffffffffffffffffffffffffffff8316612db2576040517f08c379a0000000000000000000000000000000000000000000000000000000008152600401808060200182810382526025815260200180613ee36025913960400191505060405180910390fd5b73ffffffffffffffffffffffffffffffffffffffff8216612e1e576040517f08c379a0000000000000000000000000000000000000000000000000000000008152600401808060200182810382526023815260200180613da06023913960400191505060405180910390fd5b612e29838383612588565b612e7381604051806060016040528060268152602001613e2d6026913973ffffffffffffffffffffffffffffffffffffffff86166000908152602081905260409020549190612f16565b73ffffffffffffffffffffffffffffffffffffffff8085166000908152602081905260408082209390935590841681522054612eaf9082612fc7565b73ffffffffffffffffffffffffffffffffffffffff8084166000818152602081815260409182902094909455805185815290519193928716927fddf252ad1be2c89b69c2b068fc378daa952ba7f163c4a11628f55a4df523b3ef92918290030190a3505050565b60008184841115612fbf576040517f08c379a00000000000000000000000000000000000000000000000000000000081526004018080602001828103825283818151815260200191508051906020019080838360005b83811015612f84578181015183820152602001612f6c565b50505050905090810190601f168015612fb15780820380516001836020036101000a031916815260200191505b509250505060405180910390fd5b505050900390565b600082820183811015610bf957604080517f08c379a000000000000000000000000000000000000000000000000000000000815260206004820152601b60248201527f536166654d6174683a206164646974696f6e206f766572666c6f770000000000604482015290519081900360640190fd5b73ffffffffffffffffffffffffffffffffffffffff82166130a7576040517f08c379a0000000000000000000000000000000000000000000000000000000008152600401808060200182810382526021815260200180613ec26021913960400191505060405180910390fd5b6130b382600083612588565b6130fd81604051806060016040528060228152602001613dc36022913973ffffffffffffffffffffffffffffffffffffffff85166000908152602081905260409020549190612f16565b73ffffffffffffffffffffffffffffffffffffffff831660009081526020819052604090205560025461313090826133bf565b60025560408051828152905160009173ffffffffffffffffffffffffffffffffffffffff8516917fddf252ad1be2c89b69c2b068fc378daa952ba7f163c4a11628f55a4df523b3ef9181900360200190a35050565b60006131908361385e565b156131b3575073ffffffffffffffffffffffffffffffffffffffff811631610b11565b8273ffffffffffffffffffffffffffffffffffffffff166370a08231836040518263ffffffff1660e01b8152600401808273ffffffffffffffffffffffffffffffffffffffff16815260200191505060206040518083038186803b15801561321a57600080fd5b505afa15801561322e573d6000803e3d6000fd5b505050506040513d602081101561324457600080fd5b50519050610b11565b60008261325c57506000610b11565b8282028284828161326957fe5b0414610bf9576040517f08c379a0000000000000000000000000000000000000000000000000000000008152600401808060200182810382526021815260200180613e796021913960400191505060405180910390fd5b600080821161333057604080517f08c379a000000000000000000000000000000000000000000000000000000000815260206004820152601a60248201527f536166654d6174683a206469766973696f6e206279207a65726f000000000000604482015290519081900360640190fd5b81838161333957fe5b049392505050565b8015612588576133508361385e565b1561339e5760405173ffffffffffffffffffffffffffffffffffffffff83169082156108fc029083906000818181858888f19350505050158015613398573d6000803e3d6000fd5b50612588565b61258873ffffffffffffffffffffffffffffffffffffffff84168383613878565b60008282111561343057604080517f08c379a000000000000000000000000000000000000000000000000000000000815260206004820152601e60248201527f536166654d6174683a207375627472616374696f6e206f766572666c6f770000604482015290519081900360640190fd5b50900390565b6134be846134b983610e8d61344c8260016133bf565b604080518082019091528a547affffffffffffffffffffffffffffffffffffffffffffffffffffff811682527b01000000000000000000000000000000000000000000000000000000900464ffffffffff166020820152611fb29089906134b3908c6134c4565b9061324d565b613656565b50505050565b6000806134eb61012c611edb866020015164ffffffffff16426133bf90919063ffffffff16565b905060006134fb61012c836133bf565b905061353961012c610e8d613510878661324d565b8851611fb2907affffffffffffffffffffffffffffffffffffffffffffffffffffff168661324d565b95945050505050565b6000818310156135525781610bf9565b5090919050565b60008183106135525781610bf9565b8015613652576135778261385e565b1561363057803410156135eb57604080517f08c379a000000000000000000000000000000000000000000000000000000000815260206004820152601a60248201527f556e6945524332303a206e6f7420656e6f7567682076616c7565000000000000604482015290519081900360640190fd5b8034111561362b57336108fc61360134846133bf565b6040518115909202916000818181858888f19350505050158015613629573d6000803e3d6000fd5b505b613652565b61365273ffffffffffffffffffffffffffffffffffffffff8316333084613905565b5050565b81547fffffffffff000000000000000000000000000000000000000000000000000000167affffffffffffffffffffffffffffffffffffffffffffffffffffff91821617167b010000000000000000000000000000000000000000000000000000004264ffffffffff1602179055565b6040805180820190915282547affffffffffffffffffffffffffffffffffffffffffffffffffffff811682527b01000000000000000000000000000000000000000000000000000000900464ffffffffff1660208201526136529083906134b990846134c4565b73ffffffffffffffffffffffffffffffffffffffff82166137af57604080517f08c379a000000000000000000000000000000000000000000000000000000000815260206004820152601f60248201527f45524332303a206d696e7420746f20746865207a65726f206164647265737300604482015290519081900360640190fd5b6137bb60008383612588565b6002546137c89082612fc7565b60025573ffffffffffffffffffffffffffffffffffffffff82166000908152602081905260409020546137fb9082612fc7565b73ffffffffffffffffffffffffffffffffffffffff83166000818152602081815260408083209490945583518581529351929391927fddf252ad1be2c89b69c2b068fc378daa952ba7f163c4a11628f55a4df523b3ef9281900390910190a35050565b73ffffffffffffffffffffffffffffffffffffffff161590565b6040805173ffffffffffffffffffffffffffffffffffffffff8416602482015260448082018490528251808303909101815260649091019091526020810180517bffffffffffffffffffffffffffffffffffffffffffffffffffffffff167fa9059cbb00000000000000000000000000000000000000000000000000000000179052612588908490613996565b6040805173ffffffffffffffffffffffffffffffffffffffff80861660248301528416604482015260648082018490528251808303909101815260849091019091526020810180517bffffffffffffffffffffffffffffffffffffffffffffffffffffffff167f23b872dd000000000000000000000000000000000000000000000000000000001790526134be9085905b60606139f8826040518060400160405280602081526020017f5361666545524332303a206c6f772d6c6576656c2063616c6c206661696c65648152508573ffffffffffffffffffffffffffffffffffffffff16613a6e9092919063ffffffff16565b80519091501561258857808060200190516020811015613a1757600080fd5b5051612588576040517f08c379a000000000000000000000000000000000000000000000000000000000815260040180806020018281038252602a815260200180613f2c602a913960400191505060405180910390fd5b6060613a7d8484600085613a85565b949350505050565b606082471015613ae0576040517f08c379a0000000000000000000000000000000000000000000000000000000008152600401808060200182810382526026815260200180613e536026913960400191505060405180910390fd5b613ae985613c40565b613b5457604080517f08c379a000000000000000000000000000000000000000000000000000000000815260206004820152601d60248201527f416464726573733a2063616c6c20746f206e6f6e2d636f6e7472616374000000604482015290519081900360640190fd5b600060608673ffffffffffffffffffffffffffffffffffffffff1685876040518082805190602001908083835b60208310613bbe57805182527fffffffffffffffffffffffffffffffffffffffffffffffffffffffffffffffe09092019160209182019101613b81565b6001836020036101000a03801982511681845116808217855250505050505090500191505060006040518083038185875af1925050503d8060008114613c20576040519150601f19603f3d011682016040523d82523d6000602084013e613c25565b606091505b5091509150613c35828286613c46565b979650505050505050565b3b151590565b60608315613c55575081610bf9565b825115613c655782518084602001fd5b6040517f08c379a0000000000000000000000000000000000000000000000000000000008152602060048201818152845160248401528451859391928392604401919085019080838360008315612f84578181015183820152602001612f6c565b604051806040016040528060008152602001600081525090565b828054828255906000526020600020908101928215613d58579160200282015b82811115613d585781547fffffffffffffffffffffffff00000000000000000000000000000000000000001673ffffffffffffffffffffffffffffffffffffffff843516178255602090920191600190910190613d00565b50613d64929150613d68565b5090565b5b80821115613d645780547fffffffffffffffffffffffff0000000000000000000000000000000000000000168155600101613d6956fe45524332303a207472616e7366657220746f20746865207a65726f206164647265737345524332303a206275726e20616d6f756e7420657863656564732062616c616e63654f776e61626c653a206e6577206f776e657220697320746865207a65726f206164647265737345524332303a20617070726f766520746f20746865207a65726f206164647265737345524332303a207472616e7366657220616d6f756e7420657863656564732062616c616e6365416464726573733a20696e73756666696369656e742062616c616e636520666f722063616c6c536166654d6174683a206d756c7469706c69636174696f6e206f766572666c6f7745524332303a207472616e7366657220616d6f756e74206578636565647320616c6c6f77616e636545524332303a206275726e2066726f6d20746865207a65726f206164647265737345524332303a207472616e736665722066726f6d20746865207a65726f206164647265737345524332303a20617070726f76652066726f6d20746865207a65726f20616464726573735361666545524332303a204552433230206f7065726174696f6e20646964206e6f74207375636365656445524332303a2064656372656173656420616c6c6f77616e63652062656c6f77207a65726fa2646970667358221220d015713fbd81da0ca23de5f82c17f1f91aec11683d7d0f354f9d303015e81ade64736f6c634300060c00334f776e61626c653a206e6577206f776e657220697320746865207a65726f2061646472657373a26469706673582212201b5e9a704e8bf18e025b6de5acbd90411d5845af09f1f401edf3ca7e80cbd79264736f6c634300060c0033",
  "immutableReferences": {},
  "source": "// SPDX-License-Identifier: MIT\n\npragma solidity ^0.6.0;\n\nimport \"@openzeppelin/contracts/access/Ownable.sol\";\nimport \"@openzeppelin/contracts/token/ERC20/ERC20.sol\";\nimport \"./libraries/UniERC20.sol\";\nimport \"./interfaces/IEmiswap.sol\";\nimport \"./Emiswap.sol\";\n\ncontract EmiFactory is Ownable {\n    using UniERC20 for IERC20;\n\n    mapping(address => bool) private _adminTable;\n\n    modifier onlyAdmin() {\n        require(_adminTable[msg.sender], \"Admin: caller is not admin\");\n        _;\n    }\n\n    event Deployed(\n        address indexed emiswap,\n        address indexed token1,\n        address indexed token2\n    );\n\n    event adminGranted(address indexed admin, bool isGranted);\n\n    uint256 public constant MAX_FEE = 0.003e18; // 0.3%\n\n    uint256 public fee;\n    uint256 public feeVault;\n    address public addressVault;\n    Emiswap[] public allPools;\n    mapping(Emiswap => bool) public isPool;\n    mapping(IERC20 => mapping(IERC20 => Emiswap)) public pools;\n\n    function getAllPools() external view returns (Emiswap[] memory) {\n        return allPools;\n    }\n\n    function setFee(uint256 newFee) external onlyAdmin {\n        require(newFee <= MAX_FEE, \"Factory: fee should be <= 0.3%\");\n        fee = newFee;\n    }\n\n    function setFeeVault(uint256 newFeeVault) external onlyAdmin {\n        require(newFeeVault < fee, \"Factory: vault fee\");\n        feeVault = newFeeVault;\n    }\n\n    function setaddressVault(address newAddressVault) external onlyAdmin {\n        require(newAddressVault != address(0), \"Factory: vault\");\n        addressVault = newAddressVault;\n    }\n\n    function setAdminGrant(address newAdmin, bool isGranted)\n        external\n        onlyOwner\n    {\n        require(newAdmin != address(0), \"Admin address 0\");\n        _adminTable[newAdmin] = isGranted;\n        emit adminGranted(newAdmin, isGranted);\n    }\n\n    function deploy(IERC20 tokenA, IERC20 tokenB)\n        external\n        returns (Emiswap pool)\n    {\n        require(\n            address(tokenA) != address(0) && address(tokenB) != address(0),\n            \"Factory:no 0x address\"\n        );\n        require(tokenA != tokenB, \"Factory:no same tokens\");\n        require(\n            pools[tokenA][tokenB] == Emiswap(0),\n            \"Factory:pool already exists\"\n        );\n\n        (IERC20 token1, IERC20 token2) = sortTokens(tokenA, tokenB);\n        IERC20[] memory tokens = new IERC20[](2);\n        tokens[0] = token1;\n        tokens[1] = token2;\n\n        /////////// abi.encodePacked(bytecode, abi.encode(arg1, arg2))\n        bytes memory bytecode = abi.encodePacked(type(Emiswap).creationCode);\n\n        bytes32 salt = keccak256(abi.encodePacked(token1, token2));\n        assembly {\n            pool := create2(0, add(bytecode, 32), mload(bytecode), salt)\n        }\n        Emiswap(pool).initialize(tokens);\n\n        pool.transferOwnership(owner());\n        pools[token1][token2] = pool;\n        pools[token2][token1] = pool;\n        allPools.push(pool);\n        isPool[pool] = true;\n\n        emit Deployed(address(pool), address(token1), address(token2));\n    }\n\n    function sortTokens(IERC20 tokenA, IERC20 tokenB)\n        public\n        pure\n        returns (IERC20, IERC20)\n    {\n        if (tokenA < tokenB) {\n            return (tokenA, tokenB);\n        }\n        return (tokenB, tokenA);\n    }\n}\n",
  "sourcePath": "/home/maksim/emirex/internal/emiswap/contracts/EmiFactory.sol",
  "compiler": {
    "name": "solc",
    "version": "0.6.12+commit.27d51765.Emscripten.clang"
  },
  "schemaVersion": "3.3.3",
  "updatedAt": "2021-02-10T19:36:11.165Z",
  "devdoc": {
    "kind": "dev",
    "methods": {
      "owner()": {
        "details": "Returns the address of the current owner."
      },
      "renounceOwnership()": {
        "details": "Leaves the contract without owner. It will not be possible to call `onlyOwner` functions anymore. Can only be called by the current owner. NOTE: Renouncing ownership will leave the contract without an owner, thereby removing any functionality that is only available to the owner."
      },
      "transferOwnership(address)": {
        "details": "Transfers ownership of the contract to a new account (`newOwner`). Can only be called by the current owner."
      }
    },
    "version": 1
  },
  "userdoc": {
    "kind": "user",
    "methods": {},
    "version": 1
  }
}