{
  "contractName": "EmiFactory",
  "abi": [
    {
      "anonymous": false,
      "inputs": [
        {
          "indexed": true,
          "internalType": "address",
          "name": "emiswap",
          "type": "address"
        },
        {
          "indexed": true,
          "internalType": "address",
          "name": "token1",
          "type": "address"
        },
        {
          "indexed": true,
          "internalType": "address",
          "name": "token2",
          "type": "address"
        }
      ],
      "name": "Deployed",
      "type": "event"
    },
    {
      "anonymous": false,
      "inputs": [
        {
          "indexed": true,
          "internalType": "address",
          "name": "previousOwner",
          "type": "address"
        },
        {
          "indexed": true,
          "internalType": "address",
          "name": "newOwner",
          "type": "address"
        }
      ],
      "name": "OwnershipTransferred",
      "type": "event"
    },
    {
      "anonymous": false,
      "inputs": [
        {
          "indexed": true,
          "internalType": "address",
          "name": "admin",
          "type": "address"
        },
        {
          "indexed": false,
          "internalType": "bool",
          "name": "isGranted",
          "type": "bool"
        }
      ],
      "name": "adminGranted",
      "type": "event"
    },
    {
      "inputs": [],
      "name": "MAX_FEE",
      "outputs": [
        {
          "internalType": "uint256",
          "name": "",
          "type": "uint256"
        }
      ],
      "stateMutability": "view",
      "type": "function",
      "constant": true
    },
    {
      "inputs": [],
      "name": "addressVault",
      "outputs": [
        {
          "internalType": "address",
          "name": "",
          "type": "address"
        }
      ],
      "stateMutability": "view",
      "type": "function",
      "constant": true
    },
    {
      "inputs": [
        {
          "internalType": "uint256",
          "name": "",
          "type": "uint256"
        }
      ],
      "name": "allPools",
      "outputs": [
        {
          "internalType": "contract Emiswap",
          "name": "",
          "type": "address"
        }
      ],
      "stateMutability": "view",
      "type": "function",
      "constant": true
    },
    {
      "inputs": [],
      "name": "fee",
      "outputs": [
        {
          "internalType": "uint256",
          "name": "",
          "type": "uint256"
        }
      ],
      "stateMutability": "view",
      "type": "function",
      "constant": true
    },
    {
      "inputs": [],
      "name": "feeVault",
      "outputs": [
        {
          "internalType": "uint256",
          "name": "",
          "type": "uint256"
        }
      ],
      "stateMutability": "view",
      "type": "function",
      "constant": true
    },
    {
      "inputs": [
        {
          "internalType": "contract Emiswap",
          "name": "",
          "type": "address"
        }
      ],
      "name": "isPool",
      "outputs": [
        {
          "internalType": "bool",
          "name": "",
          "type": "bool"
        }
      ],
      "stateMutability": "view",
      "type": "function",
      "constant": true
    },
    {
      "inputs": [],
      "name": "owner",
      "outputs": [
        {
          "internalType": "address",
          "name": "",
          "type": "address"
        }
      ],
      "stateMutability": "view",
      "type": "function",
      "constant": true
    },
    {
      "inputs": [
        {
          "internalType": "contract IERC20",
          "name": "",
          "type": "address"
        },
        {
          "internalType": "contract IERC20",
          "name": "",
          "type": "address"
        }
      ],
      "name": "pools",
      "outputs": [
        {
          "internalType": "contract Emiswap",
          "name": "",
          "type": "address"
        }
      ],
      "stateMutability": "view",
      "type": "function",
      "constant": true
    },
    {
      "inputs": [],
      "name": "renounceOwnership",
      "outputs": [],
      "stateMutability": "nonpayable",
      "type": "function"
    },
    {
      "inputs": [
        {
          "internalType": "address",
          "name": "newOwner",
          "type": "address"
        }
      ],
      "name": "transferOwnership",
      "outputs": [],
      "stateMutability": "nonpayable",
      "type": "function"
    },
    {
      "inputs": [],
      "name": "getAllPools",
      "outputs": [
        {
          "internalType": "contract Emiswap[]",
          "name": "",
          "type": "address[]"
        }
      ],
      "stateMutability": "view",
      "type": "function",
      "constant": true
    },
    {
      "inputs": [
        {
          "internalType": "uint256",
          "name": "newFee",
          "type": "uint256"
        }
      ],
      "name": "setFee",
      "outputs": [],
      "stateMutability": "nonpayable",
      "type": "function"
    },
    {
      "inputs": [
        {
          "internalType": "uint256",
          "name": "newFeeVault",
          "type": "uint256"
        }
      ],
      "name": "setFeeVault",
      "outputs": [],
      "stateMutability": "nonpayable",
      "type": "function"
    },
    {
      "inputs": [
        {
          "internalType": "address",
          "name": "newAddressVault",
          "type": "address"
        }
      ],
      "name": "setaddressVault",
      "outputs": [],
      "stateMutability": "nonpayable",
      "type": "function"
    },
    {
      "inputs": [
        {
          "internalType": "address",
          "name": "newAdmin",
          "type": "address"
        },
        {
          "internalType": "bool",
          "name": "isGranted",
          "type": "bool"
        }
      ],
      "name": "setAdminGrant",
      "outputs": [],
      "stateMutability": "nonpayable",
      "type": "function"
    },
    {
      "inputs": [
        {
          "internalType": "contract IERC20",
          "name": "tokenA",
          "type": "address"
        },
        {
          "internalType": "contract IERC20",
          "name": "tokenB",
          "type": "address"
        }
      ],
      "name": "deploy",
      "outputs": [
        {
          "internalType": "contract Emiswap",
          "name": "pool",
          "type": "address"
        }
      ],
      "stateMutability": "nonpayable",
      "type": "function"
    },
    {
      "inputs": [
        {
          "internalType": "contract IERC20",
          "name": "tokenA",
          "type": "address"
        },
        {
          "internalType": "contract IERC20",
          "name": "tokenB",
          "type": "address"
        }
      ],
      "name": "sortTokens",
      "outputs": [
        {
          "internalType": "contract IERC20",
          "name": "",
          "type": "address"
        },
        {
          "internalType": "contract IERC20",
          "name": "",
          "type": "address"
        }
      ],
      "stateMutability": "pure",
      "type": "function",
      "constant": true
    }
  ],
  "bytecode": "0x608060405234801561001057600080fd5b50600061001b61006a565b600080546001600160a01b0319166001600160a01b0383169081178255604051929350917f8be0079c531659141344cd1fd0a4f28419497f9722a3daafe3b4186f6b6457e0908290a35061006e565b3390565b615f248061007d6000396000f3fe60806040523480156200001157600080fd5b5060043610620001365760003560e01c8063715018a611620000c3578063d88ff1f4116200008d578063ddca3f43116200006f578063ddca3f431462000407578063f2fde38b1462000411578063f8d6640c14620004475762000136565b8063d88ff1f41462000375578063dd2e272f14620003d15762000136565b8063715018a614620003195780638da5cb5b1462000323578063901754d7146200032d578063bc063e1a146200036b5762000136565b80635692907011620001055780635692907014620002655780635b16ebb7146200026f57806369fe0e2d14620002b957806370e9d80a14620002db5762000136565b806341d1de97146200013b578063478222c21462000184578063544caa5614620001a0578063545e7c611462000227575b600080fd5b6200015b600480360360208110156200015357600080fd5b503562000467565b6040805173ffffffffffffffffffffffffffffffffffffffff9092168252519081900360200190f35b6200018e6200049c565b60408051918252519081900360200190f35b620001de60048036036040811015620001b857600080fd5b5073ffffffffffffffffffffffffffffffffffffffff81358116916020013516620004a2565b604051808373ffffffffffffffffffffffffffffffffffffffff1681526020018273ffffffffffffffffffffffffffffffffffffffff1681526020019250505060405180910390f35b6200015b600480360360408110156200023f57600080fd5b5073ffffffffffffffffffffffffffffffffffffffff81358116916020013516620004f2565b6200015b62000cbd565b620002a5600480360360208110156200028757600080fd5b503573ffffffffffffffffffffffffffffffffffffffff1662000cd9565b604080519115158252519081900360200190f35b620002d960048036036020811015620002d157600080fd5b503562000cee565b005b620002d960048036036040811015620002f357600080fd5b5073ffffffffffffffffffffffffffffffffffffffff8135169060200135151562000de9565b620002d962000f8b565b6200015b6200108e565b6200015b600480360360408110156200034557600080fd5b5073ffffffffffffffffffffffffffffffffffffffff81358116916020013516620010aa565b6200018e620010dd565b6200037f620010e8565b60408051602080825283518183015283519192839290830191858101910280838360005b83811015620003bd578181015183820152602001620003a3565b505050509050019250505060405180910390f35b620002d960048036036020811015620003e957600080fd5b503573ffffffffffffffffffffffffffffffffffffffff1662001159565b6200018e620012a2565b620002d9600480360360208110156200042957600080fd5b503573ffffffffffffffffffffffffffffffffffffffff16620012a8565b620002d9600480360360208110156200045f57600080fd5b503562001437565b600581815481106200047557fe5b60009182526020909120015473ffffffffffffffffffffffffffffffffffffffff16905081565b60035481565b6000808273ffffffffffffffffffffffffffffffffffffffff168473ffffffffffffffffffffffffffffffffffffffff161015620004e5575082905081620004eb565b50819050825b9250929050565b60008173ffffffffffffffffffffffffffffffffffffffff168373ffffffffffffffffffffffffffffffffffffffff1614156200059057604080517f08c379a000000000000000000000000000000000000000000000000000000000815260206004820181905260248201527f466163746f72793a206e6f7420737570706f72742073616d6520746f6b656e73604482015290519081900360640190fd5b73ffffffffffffffffffffffffffffffffffffffff8381166000908152600760209081526040808320868516845290915290205416156200063257604080517f08c379a000000000000000000000000000000000000000000000000000000000815260206004820152601c60248201527f466163746f72793a20706f6f6c20616c72656164792065786973747300000000604482015290519081900360640190fd5b600080620006418585620004a2565b60408051600280825260608083018452949650929450919060208301908036833701905050905082816000815181106200067757fe5b602002602001019073ffffffffffffffffffffffffffffffffffffffff16908173ffffffffffffffffffffffffffffffffffffffff16815250508181600181518110620006c057fe5b73ffffffffffffffffffffffffffffffffffffffff9283166020918202929092010152606090620006f39085166200152c565b90506060620007188473ffffffffffffffffffffffffffffffffffffffff166200152c565b905082828260405160200180807f456d697377617020563120280000000000000000000000000000000000000000815250600c0183805190602001908083835b602083106200079757805182527fffffffffffffffffffffffffffffffffffffffffffffffffffffffffffffffe0909201916020918201910162000758565b6001836020036101000a038019825116818451168082178552505050505050905001807f2d0000000000000000000000000000000000000000000000000000000000000081525060010182805190602001908083835b602083106200082c57805182527fffffffffffffffffffffffffffffffffffffffffffffffffffffffffffffffe09092019160209182019101620007ed565b6001836020036101000a038019825116818451168082178552505050505050905001807f290000000000000000000000000000000000000000000000000000000000000081525060010192505050604051602081830303815290604052838360405160200180807f454d492d56312d0000000000000000000000000000000000000000000000000081525060070183805190602001908083835b602083106200090557805182527fffffffffffffffffffffffffffffffffffffffffffffffffffffffffffffffe09092019160209182019101620008c6565b6001836020036101000a038019825116818451168082178552505050505050905001807f2d0000000000000000000000000000000000000000000000000000000000000081525060010182805190602001908083835b602083106200099a57805182527fffffffffffffffffffffffffffffffffffffffffffffffffffffffffffffffe090920191602091820191016200095b565b6001836020036101000a03801982511681845116808217855250505050505090500192505050604051602081830303815290604052604051620009dd9062001d2d565b60608082528451908201528351819060208083019160408401916080850191898201910280838360005b8381101562000a2157818101518382015260200162000a07565b50505050905001848103835286818151815260200191508051906020019080838360005b8381101562000a5f57818101518382015260200162000a45565b50505050905090810190601f16801562000a8d5780820380516001836020036101000a031916815260200191505b50848103825285518152855160209182019187019080838360005b8381101562000ac257818101518382015260200162000aa8565b50505050905090810190601f16801562000af05780820380516001836020036101000a031916815260200191505b509650505050505050604051809103906000f08015801562000b16573d6000803e3d6000fd5b5095508573ffffffffffffffffffffffffffffffffffffffff1663f2fde38b62000b3f6200108e565b6040518263ffffffff1660e01b8152600401808273ffffffffffffffffffffffffffffffffffffffff168152602001915050600060405180830381600087803b15801562000b8c57600080fd5b505af115801562000ba1573d6000803e3d6000fd5b5050505073ffffffffffffffffffffffffffffffffffffffff85811660008181526007602081815260408084208a87168086529083528185208054978e167fffffffffffffffffffffffff00000000000000000000000000000000000000009889168117909155938352818520868652835281852080548816851790556005805460018181019092557f036b6384b5eca791c62761152d0c79bb0604c104a5fb6f4eb0703f3154bb3db00180549098168517909755838552600690925280842080547fffffffffffffffffffffffffffffffffffffffffffffffffffffffffffffff0016909617909555935190917fc95935a66d15e0da5e412aca0ad27ae891d20b2fb91cf3994b6a3bf2b817808291a4505050505092915050565b60045473ffffffffffffffffffffffffffffffffffffffff1681565b60066020526000908152604090205460ff1681565b3360009081526001602052604090205460ff1662000d6d57604080517f08c379a000000000000000000000000000000000000000000000000000000000815260206004820152601a60248201527f41646d696e3a2063616c6c6572206973206e6f742061646d696e000000000000604482015290519081900360640190fd5b660aa87bee53800081111562000de457604080517f08c379a000000000000000000000000000000000000000000000000000000000815260206004820152601e60248201527f466163746f72793a206665652073686f756c64206265203c3d20302e33250000604482015290519081900360640190fd5b600255565b62000df362001aac565b60005473ffffffffffffffffffffffffffffffffffffffff90811691161462000e7d57604080517f08c379a000000000000000000000000000000000000000000000000000000000815260206004820181905260248201527f4f776e61626c653a2063616c6c6572206973206e6f7420746865206f776e6572604482015290519081900360640190fd5b73ffffffffffffffffffffffffffffffffffffffff821662000f0057604080517f08c379a000000000000000000000000000000000000000000000000000000000815260206004820152600f60248201527f41646d696e206164647265737320300000000000000000000000000000000000604482015290519081900360640190fd5b73ffffffffffffffffffffffffffffffffffffffff821660008181526001602090815260409182902080547fffffffffffffffffffffffffffffffffffffffffffffffffffffffffffffff0016851515908117909155825190815291517f4276803527e4575323610c0e0732b05a73c2540d9acd67e46a198ab5661bdb4f9281900390910190a25050565b62000f9562001aac565b60005473ffffffffffffffffffffffffffffffffffffffff9081169116146200101f57604080517f08c379a000000000000000000000000000000000000000000000000000000000815260206004820181905260248201527f4f776e61626c653a2063616c6c6572206973206e6f7420746865206f776e6572604482015290519081900360640190fd5b6000805460405173ffffffffffffffffffffffffffffffffffffffff909116907f8be0079c531659141344cd1fd0a4f28419497f9722a3daafe3b4186f6b6457e0908390a3600080547fffffffffffffffffffffffff0000000000000000000000000000000000000000169055565b60005473ffffffffffffffffffffffffffffffffffffffff1690565b600760209081526000928352604080842090915290825290205473ffffffffffffffffffffffffffffffffffffffff1681565b660aa87bee53800081565b606060058054806020026020016040519081016040528092919081815260200182805480156200114f57602002820191906000526020600020905b815473ffffffffffffffffffffffffffffffffffffffff16815260019091019060200180831162001123575b5050505050905090565b3360009081526001602052604090205460ff16620011d857604080517f08c379a000000000000000000000000000000000000000000000000000000000815260206004820152601a60248201527f41646d696e3a2063616c6c6572206973206e6f742061646d696e000000000000604482015290519081900360640190fd5b73ffffffffffffffffffffffffffffffffffffffff81166200125b57604080517f08c379a000000000000000000000000000000000000000000000000000000000815260206004820152600e60248201527f466163746f72793a207661756c74000000000000000000000000000000000000604482015290519081900360640190fd5b600480547fffffffffffffffffffffffff00000000000000000000000000000000000000001673ffffffffffffffffffffffffffffffffffffffff92909216919091179055565b60025481565b620012b262001aac565b60005473ffffffffffffffffffffffffffffffffffffffff9081169116146200133c57604080517f08c379a000000000000000000000000000000000000000000000000000000000815260206004820181905260248201527f4f776e61626c653a2063616c6c6572206973206e6f7420746865206f776e6572604482015290519081900360640190fd5b73ffffffffffffffffffffffffffffffffffffffff8116620013aa576040517f08c379a000000000000000000000000000000000000000000000000000000000815260040180806020018281038252602681526020018062005ec96026913960400191505060405180910390fd5b6000805460405173ffffffffffffffffffffffffffffffffffffffff808516939216917f8be0079c531659141344cd1fd0a4f28419497f9722a3daafe3b4186f6b6457e091a3600080547fffffffffffffffffffffffff00000000000000000000000000000000000000001673ffffffffffffffffffffffffffffffffffffffff92909216919091179055565b3360009081526001602052604090205460ff16620014b657604080517f08c379a000000000000000000000000000000000000000000000000000000000815260206004820152601a60248201527f41646d696e3a2063616c6c6572206973206e6f742061646d696e000000000000604482015290519081900360640190fd5b60025481106200152757604080517f08c379a000000000000000000000000000000000000000000000000000000000815260206004820152601260248201527f466163746f72793a207661756c74206665650000000000000000000000000000604482015290519081900360640190fd5b600355565b6060620015398262001ab0565b156200157a575060408051808201909152600381527f4554480000000000000000000000000000000000000000000000000000000000602082015262001aa7565b60408051600481526024810182526020810180517bffffffffffffffffffffffffffffffffffffffffffffffffffffffff167f95d89b41000000000000000000000000000000000000000000000000000000001781529151815160009360609373ffffffffffffffffffffffffffffffffffffffff881693614e2093919290918291908083835b602083106200164057805182527fffffffffffffffffffffffffffffffffffffffffffffffffffffffffffffffe0909201916020918201910162001601565b6001836020036101000a0380198251168184511680821785525050505050509050019150506000604051808303818686fa925050503d8060008114620016a3576040519150601f19603f3d011682016040523d82523d6000602084013e620016a8565b606091505b509150915081620017e05760408051600481526024810182526020810180517bffffffffffffffffffffffffffffffffffffffffffffffffffffffff167ff76f8d78000000000000000000000000000000000000000000000000000000001781529151815173ffffffffffffffffffffffffffffffffffffffff881693614e209392918291908083835b602083106200177157805182527fffffffffffffffffffffffffffffffffffffffffffffffffffffffffffffffe0909201916020918201910162001732565b6001836020036101000a0380198251168184511680821785525050505050509050019150506000604051808303818686fa925050503d8060008114620017d4576040519150601f19603f3d011682016040523d82523d6000602084013e620017d9565b606091505b5090925090505b818015620017f057506060815110155b156200191c576000808280602001905160408110156200180f57600080fd5b5080516020918201519093509150821480156200182c5750600081115b80156200183b57506101008111155b1562001919578280602001905160208110156200185757600080fd5b81019080805160405193929190846401000000008211156200187857600080fd5b9083019060208201858111156200188e57600080fd5b8251640100000000811182820188101715620018a957600080fd5b82525081516020918201929091019080838360005b83811015620018d8578181015183820152602001620018be565b50505050905090810190601f168015620019065780820380516001836020036101000a031916815260200191505b5060405250505094505050505062001aa7565b50505b8180156200192b575080516020145b1562001a975760005b8151811080156200197c5750602060f81b8282815181106200195257fe5b01602001517fff000000000000000000000000000000000000000000000000000000000000001610155b8015620019c05750607e60f81b8282815181106200199657fe5b01602001517fff000000000000000000000000000000000000000000000000000000000000001611155b15620019cf5760010162001934565b801562001a955760608167ffffffffffffffff81118015620019f057600080fd5b506040519080825280601f01601f19166020018201604052801562001a1c576020820181803683370190505b50905060005b8281101562001a885783818151811062001a3857fe5b602001015160f81c60f81b82828151811062001a5057fe5b60200101907effffffffffffffffffffffffffffffffffffffffffffffffffffffffffffff1916908160001a90535060010162001a22565b50935062001aa792505050565b505b62001aa28462001aca565b925050505b919050565b3390565b73ffffffffffffffffffffffffffffffffffffffff161590565b606062001b0f82604051602001808273ffffffffffffffffffffffffffffffffffffffff1660601b815260140191505060405160208183030381529060405262001b15565b92915050565b606080825160020260020167ffffffffffffffff8111801562001b3757600080fd5b506040519080825280601f01601f19166020018201604052801562001b63576020820181803683370190505b5090507f30000000000000000000000000000000000000000000000000000000000000008160008151811062001b9557fe5b60200101907effffffffffffffffffffffffffffffffffffffffffffffffffffffffffffff1916908160001a9053507f78000000000000000000000000000000000000000000000000000000000000008160018151811062001bf357fe5b60200101907effffffffffffffffffffffffffffffffffffffffffffffffffffffffffffff1916908160001a905350600260005b845181101562001d24576000600486838151811062001c4257fe5b602001015160f81c60f81b60f81c60ff16901c60ff169050600086838151811062001c6957fe5b60209101015160f81c600f169050600a8204602702826030010160f81b85858060010196508151811062001c9957fe5b60200101907effffffffffffffffffffffffffffffffffffffffffffffffffffffffffffff1916908160001a905350600a8104602702816030010160f81b85858060010196508151811062001cea57fe5b60200101907effffffffffffffffffffffffffffffffffffffffffffffffffffffffffffff1916908160001a905350505060010162001c27565b50909392505050565b61418d8062001d3c8339019056fe60806040523480156200001157600080fd5b506040516200418d3803806200418d833981810160405260608110156200003757600080fd5b81019080805160405193929190846401000000008211156200005857600080fd5b9083019060208201858111156200006e57600080fd5b82518660208202830111640100000000821117156200008c57600080fd5b82525081516020918201928201910280838360005b83811015620000bb578181015183820152602001620000a1565b5050505090500160405260200180516040519392919084640100000000821115620000e557600080fd5b908301906020820185811115620000fb57600080fd5b82516401000000008111828201881017156200011657600080fd5b82525081516020918201929091019080838360005b83811015620001455781810151838201526020016200012b565b50505050905090810190601f168015620001735780820380516001836020036101000a031916815260200191505b50604052602001805160405193929190846401000000008211156200019757600080fd5b908301906020820185811115620001ad57600080fd5b8251640100000000811182820188101715620001c857600080fd5b82525081516020918201929091019080838360005b83811015620001f7578181015183820152602001620001dd565b50505050905090810190601f168015620002255780820380516001836020036101000a031916815260200191505b5060405250508251839150829062000245906003906020850190620004eb565b5080516200025b906004906020840190620004eb565b50506005805460ff1916601217905550600160065560006200027c620004e7565b600780546001600160a01b0319166001600160a01b038316908117909155604051919250906000907f8be0079c531659141344cd1fd0a4f28419497f9722a3daafe3b4186f6b6457e0908290a350600082511162000321576040805162461bcd60e51b815260206004820152601660248201527f456d69737761703a206e616d6520697320656d70747900000000000000000000604482015290519081900360640190fd5b600081511162000378576040805162461bcd60e51b815260206004820152601860248201527f456d69737761703a2073796d626f6c20697320656d7074790000000000000000604482015290519081900360640190fd5b8251600214620003cf576040805162461bcd60e51b815260206004820152601e60248201527f456d69737761703a206f6e6c79203220746f6b656e7320616c6c6f7765640000604482015290519081900360640190fd5b600880546001600160a01b031916331790558251620003f690600990602086019062000570565b5060005b8351811015620004dd57600a60008583815181106200041557fe5b6020908102919091018101516001600160a01b031682528101919091526040016000205460ff16156200048f576040805162461bcd60e51b815260206004820152601960248201527f456d69737761703a206475706c696361746520746f6b656e7300000000000000604482015290519081900360640190fd5b6001600a6000868481518110620004a257fe5b6020908102919091018101516001600160a01b03168252810191909152604001600020805460ff1916911515919091179055600101620003fa565b505050506200060e565b3390565b828054600181600116156101000203166002900490600052602060002090601f016020900481019282601f106200052e57805160ff19168380011785556200055e565b828001600101855582156200055e579182015b828111156200055e57825182559160200191906001019062000541565b506200056c929150620005d6565b5090565b828054828255906000526020600020908101928215620005c8579160200282015b82811115620005c857825182546001600160a01b0319166001600160a01b0390911617825560209092019160019091019062000591565b506200056c929150620005ed565b5b808211156200056c5760008155600101620005d7565b5b808211156200056c5780546001600160a01b0319168155600101620005ee565b613b6f806200061e6000396000f3fe608060405234801561001057600080fd5b50600436106102415760003560e01c806378e3214f11610145578063baf13a0a116100bd578063dd62ed3e1161008c578063e7ff42c911610071578063e7ff42c9146108af578063f223885a146108e2578063f2fde38b146109a457610241565b8063dd62ed3e1461086c578063ddca3f43146108a757610241565b8063baf13a0a14610821578063c45a015514610829578063d73792a914610831578063d7d3aab51461083957610241565b8063a457c2d711610114578063aa6ca808116100f9578063aa6ca8081461074d578063b1ec4c40146107a5578063b21b5a211461081957610241565b8063a457c2d7146106db578063a9059cbb1461071457610241565b806378e3214f1461063b5780637dc20382146106745780638da5cb5b146106cb57806395d89b41146106d357610241565b8063478222c2116101d85780635915d806116101a75780636edc2c091161018c5780636edc2c09146105cd57806370a0823114610600578063715018a61461063357610241565b80635915d806146104b15780635ed9156d1461055d57610241565b8063478222c21461045357806348d67e1b1461045b5780634f64b2be1461046357806356929070146104a957610241565b80631e1401f8116102145780631e1401f81461035d57806323b872dd146103b9578063313ce567146103fc578063395093511461041a57610241565b806306fdde0314610246578063095ea7b3146102c357806318160ddd1461031057806319f373611461032a575b600080fd5b61024e6109d7565b6040805160208082528351818301528351919283929083019185019080838360005b83811015610288578181015183820152602001610270565b50505050905090810190601f1680156102b55780820380516001836020036101000a031916815260200191505b509250505060405180910390f35b6102fc600480360360408110156102d957600080fd5b5073ffffffffffffffffffffffffffffffffffffffff8135169060200135610a8b565b604080519115158252519081900360200190f35b610318610aa9565b60408051918252519081900360200190f35b6102fc6004803603602081101561034057600080fd5b503573ffffffffffffffffffffffffffffffffffffffff16610aaf565b6103a06004803603606081101561037357600080fd5b5073ffffffffffffffffffffffffffffffffffffffff813581169160208101359091169060400135610ac4565b6040805192835260208301919091528051918290030190f35b6102fc600480360360608110156103cf57600080fd5b5073ffffffffffffffffffffffffffffffffffffffff813581169160208101359091169060400135610af0565b610404610b91565b6040805160ff9092168252519081900360200190f35b6102fc6004803603604081101561043057600080fd5b5073ffffffffffffffffffffffffffffffffffffffff8135169060200135610b9a565b610318610bf5565b610318610c91565b6104806004803603602081101561047957600080fd5b5035610c97565b6040805173ffffffffffffffffffffffffffffffffffffffff9092168252519081900360200190f35b610480610ccb565b61055b600480360360408110156104c757600080fd5b813591908101906040810160208201356401000000008111156104e957600080fd5b8201836020820111156104fb57600080fd5b8035906020019184602083028401116401000000008311171561051d57600080fd5b919080806020026020016040519081016040528093929190818152602001838360200280828437600092019190915250929550610d36945050505050565b005b6105906004803603602081101561057357600080fd5b503573ffffffffffffffffffffffffffffffffffffffff16610f97565b604080517affffffffffffffffffffffffffffffffffffffffffffffffffffff909316835264ffffffffff90911660208301528051918290030190f35b610590600480360360208110156105e357600080fd5b503573ffffffffffffffffffffffffffffffffffffffff16610fee565b6103186004803603602081101561061657600080fd5b503573ffffffffffffffffffffffffffffffffffffffff16611045565b61055b61106d565b61055b6004803603604081101561065157600080fd5b5073ffffffffffffffffffffffffffffffffffffffff813516906020013561116d565b610318600480360360c081101561068a57600080fd5b5073ffffffffffffffffffffffffffffffffffffffff81358116916020810135821691604082013591606081013591608082013581169160a001351661146e565b610480611abf565b61024e611adb565b6102fc600480360360408110156106f157600080fd5b5073ffffffffffffffffffffffffffffffffffffffff8135169060200135611b5a565b6102fc6004803603604081101561072a57600080fd5b5073ffffffffffffffffffffffffffffffffffffffff8135169060200135611bcf565b610755611be3565b60408051602080825283518183015283519192839290830191858101910280838360005b83811015610791578181015183820152602001610779565b505050509050019250505060405180910390f35b6107d8600480360360208110156107bb57600080fd5b503573ffffffffffffffffffffffffffffffffffffffff16611c51565b60405180836fffffffffffffffffffffffffffffffff168152602001826fffffffffffffffffffffffffffffffff1681526020019250505060405180910390f35b610318611c8d565b610318611c92565b610480611c98565b610318611cb4565b6103186004803603602081101561084f57600080fd5b503573ffffffffffffffffffffffffffffffffffffffff16611cc0565b6103186004803603604081101561088257600080fd5b5073ffffffffffffffffffffffffffffffffffffffff81358116916020013516611d7d565b610318611db5565b610318600480360360208110156108c557600080fd5b503573ffffffffffffffffffffffffffffffffffffffff16611e20565b610318600480360360408110156108f857600080fd5b81019060208101813564010000000081111561091357600080fd5b82018360208201111561092557600080fd5b8035906020019184602083028401116401000000008311171561094757600080fd5b91939092909160208101903564010000000081111561096557600080fd5b82018360208201111561097757600080fd5b8035906020019184602083028401116401000000008311171561099957600080fd5b509092509050611ed6565b61055b600480360360208110156109ba57600080fd5b503573ffffffffffffffffffffffffffffffffffffffff1661261c565b60038054604080516020601f60027fffffffffffffffffffffffffffffffffffffffffffffffffffffffffffffffff610100600188161502019095169490940493840181900481028201810190925282815260609390929091830182828015610a815780601f10610a5657610100808354040283529160200191610a81565b820191906000526020600020905b815481529060010190602001808311610a6457829003601f168201915b5050505050905090565b6000610a9f610a986127a7565b84846127ab565b5060015b92915050565b60025490565b600a6020526000908152604090205460ff1681565b600080610ae4858585610ad689611cc0565b610adf89611e20565b6128f2565b91509150935093915050565b6000610afd848484612a49565b610b8784610b096127a7565b610b8285604051806060016040528060288152602001613a596028913973ffffffffffffffffffffffffffffffffffffffff8a16600090815260016020526040812090610b546127a7565b73ffffffffffffffffffffffffffffffffffffffff1681526020810191909152604001600020549190612c19565b6127ab565b5060019392505050565b60055460ff1690565b6000610a9f610ba76127a7565b84610b828560016000610bb86127a7565b73ffffffffffffffffffffffffffffffffffffffff908116825260208083019390935260409182016000908120918c168152925290205490612cca565b600854604080517f478222c2000000000000000000000000000000000000000000000000000000008152905160009273ffffffffffffffffffffffffffffffffffffffff169163478222c2916004808301926020929190829003018186803b158015610c6057600080fd5b505afa158015610c74573d6000803e3d6000fd5b505050506040513d6020811015610c8a57600080fd5b5051905090565b61012c90565b60098181548110610ca457fe5b60009182526020909120015473ffffffffffffffffffffffffffffffffffffffff16905081565b600854604080517f56929070000000000000000000000000000000000000000000000000000000008152905160009273ffffffffffffffffffffffffffffffffffffffff16916356929070916004808301926020929190829003018186803b158015610c6057600080fd5b60026006541415610da857604080517f08c379a000000000000000000000000000000000000000000000000000000000815260206004820152601f60248201527f5265656e7472616e637947756172643a207265656e7472616e742063616c6c00604482015290519081900360640190fd5b60026006556000610db7610aa9565b9050610dc33384612d3e565b60005b600954811015610f5657600060098281548110610ddf57fe5b600091825260208220015473ffffffffffffffffffffffffffffffffffffffff169150610e0c8230612e88565b90506000610e2485610e1e848a612f50565b90612fc3565b9050610e4773ffffffffffffffffffffffffffffffffffffffff84163383613005565b855184101580610e6a5750858481518110610e5e57fe5b60200260200101518110155b610ed557604080517f08c379a000000000000000000000000000000000000000000000000000000000815260206004820152601d60248201527f456d69737761703a20726573756c74206973206e6f7420656e6f756768000000604482015290519081900360640190fd5b610f1082610ee3878a613088565b73ffffffffffffffffffffffffffffffffffffffff86166000908152600c602052604090209190886130ca565b610f4b82610f1e878a613088565b73ffffffffffffffffffffffffffffffffffffffff86166000908152600d602052604090209190886130ca565b505050600101610dc6565b5060408051848152905133917f7084f5476618d8e60b11ef0d7d3f06914655adb8793e28ff7f018d4c76d505d5919081900360200190a25050600160065550565b600d602052600090815260409020547affffffffffffffffffffffffffffffffffffffffffffffffffffff8116907b01000000000000000000000000000000000000000000000000000000900464ffffffffff1682565b600c602052600090815260409020547affffffffffffffffffffffffffffffffffffffffffffffffffffff8116907b01000000000000000000000000000000000000000000000000000000900464ffffffffff1682565b73ffffffffffffffffffffffffffffffffffffffff1660009081526020819052604090205490565b6110756127a7565b60075473ffffffffffffffffffffffffffffffffffffffff9081169116146110fe57604080517f08c379a000000000000000000000000000000000000000000000000000000000815260206004820181905260248201527f4f776e61626c653a2063616c6c6572206973206e6f7420746865206f776e6572604482015290519081900360640190fd5b60075460405160009173ffffffffffffffffffffffffffffffffffffffff16907f8be0079c531659141344cd1fd0a4f28419497f9722a3daafe3b4186f6b6457e0908390a3600780547fffffffffffffffffffffffff0000000000000000000000000000000000000000169055565b600260065414156111df57604080517f08c379a000000000000000000000000000000000000000000000000000000000815260206004820152601f60248201527f5265656e7472616e637947756172643a207265656e7472616e742063616c6c00604482015290519081900360640190fd5b60026006556111ec6127a7565b60075473ffffffffffffffffffffffffffffffffffffffff90811691161461127557604080517f08c379a000000000000000000000000000000000000000000000000000000000815260206004820181905260248201527f4f776e61626c653a2063616c6c6572206973206e6f7420746865206f776e6572604482015290519081900360640190fd5b60095460609067ffffffffffffffff8111801561129157600080fd5b506040519080825280602002602001820160405280156112bb578160200160208202803683370190505b50905060005b81518110156113225761130330600983815481106112db57fe5b60009182526020909120015473ffffffffffffffffffffffffffffffffffffffff1690612e88565b82828151811061130f57fe5b60209081029190910101526001016112c1565b5061134473ffffffffffffffffffffffffffffffffffffffff84163384613005565b60005b81518110156113ea5781818151811061135c57fe5b602002602001015161137530600984815481106112db57fe5b10156113e257604080517f08c379a000000000000000000000000000000000000000000000000000000000815260206004820152601660248201527f456d69737761703a206163636573732064656e69656400000000000000000000604482015290519081900360640190fd5b600101611347565b506103e86113f730611045565b101561146457604080517f08c379a000000000000000000000000000000000000000000000000000000000815260206004820152601660248201527f456d69737761703a206163636573732064656e69656400000000000000000000604482015290519081900360640190fd5b5050600160065550565b6000600260065414156114e257604080517f08c379a000000000000000000000000000000000000000000000000000000000815260206004820152601f60248201527f5265656e7472616e637947756172643a207265656e7472616e742063616c6c00604482015290519081900360640190fd5b600260065573ffffffffffffffffffffffffffffffffffffffff871661156957604080517f08c379a000000000000000000000000000000000000000000000000000000000815260206004820152601c60248201527f456d69737761703a206f6e6c7920746f6b656e7320616c6c6f77656400000000604482015290519081900360640190fd5b61157161396a565b604080518082019091528061159c73ffffffffffffffffffffffffffffffffffffffff8b1630612e88565b81526020016115c173ffffffffffffffffffffffffffffffffffffffff8a1630612e88565b9052805173ffffffffffffffffffffffffffffffffffffffff8a166000908152600c602090815260408083208151808301909252547affffffffffffffffffffffffffffffffffffffffffffffffffffff811682527b01000000000000000000000000000000000000000000000000000000900464ffffffffff16918101919091529293509161165c916116559190613158565b83516131d6565b60208381015173ffffffffffffffffffffffffffffffffffffffff8b166000908152600d835260408082208151808301909252547affffffffffffffffffffffffffffffffffffffffffffffffffffff811682527b01000000000000000000000000000000000000000000000000000000900464ffffffffff16938101939093529293506116f7916116ed91613158565b84602001516131ed565b905061171973ffffffffffffffffffffffffffffffffffffffff8b16896131fc565b82516000906117489061174273ffffffffffffffffffffffffffffffffffffffff8e1630612e88565b90613088565b905060006117598c8c8487876128f2565b9096509050851580159061176d5750888610155b6117d857604080517f08c379a000000000000000000000000000000000000000000000000000000000815260206004820152601d60248201527f456d69737761703a2072657475726e206973206e6f7420656e6f756768000000604482015290519081900360640190fd5b6117f973ffffffffffffffffffffffffffffffffffffffff8c168988613005565b80156118285761182861180a610ccb565b73ffffffffffffffffffffffffffffffffffffffff8d169083613005565b845184146118685761186861183d8584612cca565b73ffffffffffffffffffffffffffffffffffffffff8e166000908152600c60205260409020906132ea565b846020015183146118ab576118ab6118808488613088565b73ffffffffffffffffffffffffffffffffffffffff8d166000908152600d60205260409020906132ea565b845173ffffffffffffffffffffffffffffffffffffffff8d166000908152600d602052604090206118db9161335a565b60208086015173ffffffffffffffffffffffffffffffffffffffff8d166000908152600c90925260409091206119109161335a565b8a73ffffffffffffffffffffffffffffffffffffffff168c73ffffffffffffffffffffffffffffffffffffffff163373ffffffffffffffffffffffffffffffffffffffff167f86c49b5d8577da08444947f1427d23ef191cfabf2c0788f93324d79e926a9302858a8a600001518b6020015161198a610aa9565b604080519586526020860194909452848401929092526060840152608083015273ffffffffffffffffffffffffffffffffffffffff8d1660a0830152519081900360c00190a460408051828152905173ffffffffffffffffffffffffffffffffffffffff8a169133917f2ff1ad11b6e7211d4d0cc86e3a449ecc036fd7abfe355401bdb6304dbf9b7a2b9181900360200190a35073ffffffffffffffffffffffffffffffffffffffff909a166000908152600b6020526040902080547001000000000000000000000000000000006fffffffffffffffffffffffffffffffff808316909d018d167fffffffffffffffffffffffffffffffff00000000000000000000000000000000909216919091178181048d1687018d169091029b169a909a17909955505060016006559695505050505050565b60075473ffffffffffffffffffffffffffffffffffffffff1690565b60048054604080516020601f60027fffffffffffffffffffffffffffffffffffffffffffffffffffffffffffffffff610100600188161502019095169490940493840181900481028201810190925282815260609390929091830182828015610a815780601f10610a5657610100808354040283529160200191610a81565b6000610a9f611b676127a7565b84610b8285604051806060016040528060258152602001613b156025913960016000611b916127a7565b73ffffffffffffffffffffffffffffffffffffffff908116825260208083019390935260409182016000908120918d16815292529020549190612c19565b6000610a9f611bdc6127a7565b8484612a49565b60606009805480602002602001604051908101604052809291908181526020018280548015610a8157602002820191906000526020600020905b815473ffffffffffffffffffffffffffffffffffffffff168152600190910190602001808311611c1d575050505050905090565b600b602052600090815260409020546fffffffffffffffffffffffffffffffff8082169170010000000000000000000000000000000090041682565b601481565b6103e881565b60085473ffffffffffffffffffffffffffffffffffffffff1681565b670de0b6b3a764000081565b600080611ce373ffffffffffffffffffffffffffffffffffffffff841630612e88565b73ffffffffffffffffffffffffffffffffffffffff84166000908152600c60209081526040918290208251808401909352547affffffffffffffffffffffffffffffffffffffffffffffffffffff811683527b01000000000000000000000000000000000000000000000000000000900464ffffffffff1690820152909150611d7690611d709083613158565b826131d6565b9392505050565b73ffffffffffffffffffffffffffffffffffffffff918216600090815260016020908152604080832093909416825291909152205490565b600854604080517fddca3f43000000000000000000000000000000000000000000000000000000008152905160009273ffffffffffffffffffffffffffffffffffffffff169163ddca3f43916004808301926020929190829003018186803b158015610c6057600080fd5b600080611e4373ffffffffffffffffffffffffffffffffffffffff841630612e88565b73ffffffffffffffffffffffffffffffffffffffff84166000908152600d60209081526040918290208251808401909352547affffffffffffffffffffffffffffffffffffffffffffffffffffff811683527b01000000000000000000000000000000000000000000000000000000900464ffffffffff1690820152909150611d7690611ed09083613158565b826131ed565b600060026006541415611f4a57604080517f08c379a000000000000000000000000000000000000000000000000000000000815260206004820152601f60248201527f5265656e7472616e637947756172643a207265656e7472616e742063616c6c00604482015290519081900360640190fd5b6002600655600980546040805160208084028201810190925282815260609390929091830182828015611fb357602002820191906000526020600020905b815473ffffffffffffffffffffffffffffffffffffffff168152600190910190602001808311611f88575b5093945050508615801592509050611fcb5750805185145b61203657604080517f08c379a000000000000000000000000000000000000000000000000000000000815260206004820152601d60248201527f456d69737761703a2077726f6e6720616d6f756e7473206c656e677468000000604482015290519081900360640190fd5b60008686600081811061204557fe5b9050602002013511801561206c575060008686600181811061206357fe5b90506020020135115b6120d757604080517f08c379a000000000000000000000000000000000000000000000000000000000815260206004820152601a60248201527f456d69737761703a2077726f6e672076616c7565207573616765000000000000604482015290519081900360640190fd5b60608567ffffffffffffffff811180156120f057600080fd5b5060405190808252806020026020018201604052801561211a578160200160208202803683370190505b50905060005b8151811015612184576121653084838151811061213957fe5b602002602001015173ffffffffffffffffffffffffffffffffffffffff16612e8890919063ffffffff16565b82828151811061217157fe5b6020908102919091010152600101612120565b50600061218f610aa9565b9050806121e8576121a36103e86063612f50565b93506121b1306103e86133c1565b60005b878110156121e2576121d8858a8a848181106121cc57fe5b905060200201356131d6565b94506001016121b4565b50612267565b7fffffffffffffffffffffffffffffffffffffffffffffffffffffffffffffffff935060005b878110156122655761225b8561225685848151811061222957fe5b6020026020010151610e1e8d8d8781811061224057fe5b9050602002013587612f5090919063ffffffff16565b6131ed565b945060010161220e565b505b8360005b888110156124775760008a8a8381811061228157fe5b90506020020135116122f457604080517f08c379a000000000000000000000000000000000000000000000000000000000815260206004820152601760248201527f456d69737761703a20616d6f756e74206973207a65726f000000000000000000604482015290519081900360640190fd5b600083156123385761233384610e1e6001870361232d878a888151811061231757fe5b6020026020010151612f5090919063ffffffff16565b90612cca565b61234c565b8a8a8381811061234457fe5b905060200201355b905088888381811061235a57fe5b905060200201358110156123cf57604080517f08c379a000000000000000000000000000000000000000000000000000000000815260206004820152601e60248201527f456d69737761703a206d696e416d6f756e74206e6f7420726561636865640000604482015290519081900360640190fd5b61240b818784815181106123df57fe5b602002602001015173ffffffffffffffffffffffffffffffffffffffff166131fc90919063ffffffff16565b831561246e57600061243a86848151811061242257fe5b6020026020010151611742308a878151811061213957fe5b905061246a8861225688868151811061244f57fe5b6020026020010151610e1e858a612f5090919063ffffffff16565b9750505b5060010161226b565b50811561255b5760005b888110156125595761251684828151811061249857fe5b60200260200101516124b38886612cca90919063ffffffff16565b85600d60008a87815181106124c457fe5b602002602001015173ffffffffffffffffffffffffffffffffffffffff1673ffffffffffffffffffffffffffffffffffffffff1681526020019081526020016000206130ca909392919063ffffffff16565b61255184828151811061252557fe5b60200260200101516125408886612cca90919063ffffffff16565b85600c60008a87815181106124c457fe5b600101612481565b505b600085116125ca57604080517f08c379a000000000000000000000000000000000000000000000000000000000815260206004820152601e60248201527f456d6e69737761703a20726573756c74206973206e6f7420656e6f7567680000604482015290519081900360640190fd5b6125d433866133c1565b60408051868152905133917f2da466a7b24304f47e87fa2e1e5a81b9831ce54fec19055ce277ca2f39ba42c4919081900360200190a250506001600655509095945050505050565b6126246127a7565b60075473ffffffffffffffffffffffffffffffffffffffff9081169116146126ad57604080517f08c379a000000000000000000000000000000000000000000000000000000000815260206004820181905260248201527f4f776e61626c653a2063616c6c6572206973206e6f7420746865206f776e6572604482015290519081900360640190fd5b73ffffffffffffffffffffffffffffffffffffffff8116612719576040517f08c379a00000000000000000000000000000000000000000000000000000000081526004018080602001828103825260268152602001806139ca6026913960400191505060405180910390fd5b60075460405173ffffffffffffffffffffffffffffffffffffffff8084169216907f8be0079c531659141344cd1fd0a4f28419497f9722a3daafe3b4186f6b6457e090600090a3600780547fffffffffffffffffffffffff00000000000000000000000000000000000000001673ffffffffffffffffffffffffffffffffffffffff92909216919091179055565b3390565b73ffffffffffffffffffffffffffffffffffffffff8316612817576040517f08c379a0000000000000000000000000000000000000000000000000000000008152600401808060200182810382526024815260200180613ac76024913960400191505060405180910390fd5b73ffffffffffffffffffffffffffffffffffffffff8216612883576040517f08c379a00000000000000000000000000000000000000000000000000000000081526004018080602001828103825260228152602001806139f06022913960400191505060405180910390fd5b73ffffffffffffffffffffffffffffffffffffffff808416600081815260016020908152604080832094871680845294825291829020859055815185815291517f8c5be1e5ebec7d5bd14f71427d1e84f3dd0314c0f7b2291e5b200ac8c7c3b9259281900390910190a3505050565b73ffffffffffffffffffffffffffffffffffffffff85166000908152600a6020526040812054819060ff16801561294e575073ffffffffffffffffffffffffffffffffffffffff86166000908152600a602052604090205460ff165b801561298657508573ffffffffffffffffffffffffffffffffffffffff168773ffffffffffffffffffffffffffffffffffffffff1614155b80156129925750600085115b15612a3f5760006129c16129ba670de0b6b3a7640000610e1e6129b3611db5565b8a90612f50565b8790613088565b905060006129dc6129d28789612cca565b610e1e8988612f50565b905060006129f76129ed8885612cca565b610e1e8589612f50565b90506000612a03610bf5565b15612a2d57612a28612a1e612a16610bf5565b610e1e611db5565b610e1e8585613088565b612a30565b60005b919550909350612a3f92505050565b9550959350505050565b73ffffffffffffffffffffffffffffffffffffffff8316612ab5576040517f08c379a0000000000000000000000000000000000000000000000000000000008152600401808060200182810382526025815260200180613aa26025913960400191505060405180910390fd5b73ffffffffffffffffffffffffffffffffffffffff8216612b21576040517f08c379a00000000000000000000000000000000000000000000000000000000081526004018080602001828103825260238152602001806139856023913960400191505060405180910390fd5b612b2c838383613083565b612b7681604051806060016040528060268152602001613a126026913973ffffffffffffffffffffffffffffffffffffffff86166000908152602081905260409020549190612c19565b73ffffffffffffffffffffffffffffffffffffffff8085166000908152602081905260408082209390935590841681522054612bb29082612cca565b73ffffffffffffffffffffffffffffffffffffffff8084166000818152602081815260409182902094909455805185815290519193928716927fddf252ad1be2c89b69c2b068fc378daa952ba7f163c4a11628f55a4df523b3ef92918290030190a3505050565b60008184841115612cc2576040517f08c379a00000000000000000000000000000000000000000000000000000000081526004018080602001828103825283818151815260200191508051906020019080838360005b83811015612c87578181015183820152602001612c6f565b50505050905090810190601f168015612cb45780820380516001836020036101000a031916815260200191505b509250505060405180910390fd5b505050900390565b600082820183811015611d7657604080517f08c379a000000000000000000000000000000000000000000000000000000000815260206004820152601b60248201527f536166654d6174683a206164646974696f6e206f766572666c6f770000000000604482015290519081900360640190fd5b73ffffffffffffffffffffffffffffffffffffffff8216612daa576040517f08c379a0000000000000000000000000000000000000000000000000000000008152600401808060200182810382526021815260200180613a816021913960400191505060405180910390fd5b612db682600083613083565b612e00816040518060600160405280602281526020016139a86022913973ffffffffffffffffffffffffffffffffffffffff85166000908152602081905260409020549190612c19565b73ffffffffffffffffffffffffffffffffffffffff8316600090815260208190526040902055600254612e339082613088565b60025560408051828152905160009173ffffffffffffffffffffffffffffffffffffffff8516917fddf252ad1be2c89b69c2b068fc378daa952ba7f163c4a11628f55a4df523b3ef9181900360200190a35050565b6000612e93836134f2565b15612eb6575073ffffffffffffffffffffffffffffffffffffffff811631610aa3565b8273ffffffffffffffffffffffffffffffffffffffff166370a08231836040518263ffffffff1660e01b8152600401808273ffffffffffffffffffffffffffffffffffffffff16815260200191505060206040518083038186803b158015612f1d57600080fd5b505afa158015612f31573d6000803e3d6000fd5b505050506040513d6020811015612f4757600080fd5b50519050610aa3565b600082612f5f57506000610aa3565b82820282848281612f6c57fe5b0414611d76576040517f08c379a0000000000000000000000000000000000000000000000000000000008152600401808060200182810382526021815260200180613a386021913960400191505060405180910390fd5b6000611d7683836040518060400160405280601a81526020017f536166654d6174683a206469766973696f6e206279207a65726f00000000000081525061350c565b801561308357613014836134f2565b156130625760405173ffffffffffffffffffffffffffffffffffffffff83169082156108fc029083906000818181858888f1935050505015801561305c573d6000803e3d6000fd5b50613083565b61308373ffffffffffffffffffffffffffffffffffffffff8416838361358b565b505050565b6000611d7683836040518060400160405280601e81526020017f536166654d6174683a207375627472616374696f6e206f766572666c6f770000815250612c19565b6131528461314d83610e1e6130e0826001613088565b604080518082019091528a547affffffffffffffffffffffffffffffffffffffffffffffffffffff811682527b01000000000000000000000000000000000000000000000000000000900464ffffffffff16602082015261232d908990613147908c613158565b90612f50565b6132ea565b50505050565b60008061317f61012c612256866020015164ffffffffff164261308890919063ffffffff16565b9050600061318f61012c83613088565b90506131cd61012c610e1e6131a48786612f50565b885161232d907affffffffffffffffffffffffffffffffffffffffffffffffffffff1686612f50565b95945050505050565b6000818310156131e65781611d76565b5090919050565b60008183106131e65781611d76565b80156132e65761320b826134f2565b156132c4578034101561327f57604080517f08c379a000000000000000000000000000000000000000000000000000000000815260206004820152601a60248201527f556e6945524332303a206e6f7420656e6f7567682076616c7565000000000000604482015290519081900360640190fd5b803411156132bf57336108fc6132953484613088565b6040518115909202916000818181858888f193505050501580156132bd573d6000803e3d6000fd5b505b6132e6565b6132e673ffffffffffffffffffffffffffffffffffffffff8316333084613618565b5050565b81547fffffffffff000000000000000000000000000000000000000000000000000000167affffffffffffffffffffffffffffffffffffffffffffffffffffff91821617167b010000000000000000000000000000000000000000000000000000004264ffffffffff1602179055565b6040805180820190915282547affffffffffffffffffffffffffffffffffffffffffffffffffffff811682527b01000000000000000000000000000000000000000000000000000000900464ffffffffff1660208201526132e690839061314d9084613158565b73ffffffffffffffffffffffffffffffffffffffff821661344357604080517f08c379a000000000000000000000000000000000000000000000000000000000815260206004820152601f60248201527f45524332303a206d696e7420746f20746865207a65726f206164647265737300604482015290519081900360640190fd5b61344f60008383613083565b60025461345c9082612cca565b60025573ffffffffffffffffffffffffffffffffffffffff821660009081526020819052604090205461348f9082612cca565b73ffffffffffffffffffffffffffffffffffffffff83166000818152602081815260408083209490945583518581529351929391927fddf252ad1be2c89b69c2b068fc378daa952ba7f163c4a11628f55a4df523b3ef9281900390910190a35050565b73ffffffffffffffffffffffffffffffffffffffff161590565b60008183613575576040517f08c379a0000000000000000000000000000000000000000000000000000000008152602060048201818152835160248401528351909283926044909101919085019080838360008315612c87578181015183820152602001612c6f565b50600083858161358157fe5b0495945050505050565b6040805173ffffffffffffffffffffffffffffffffffffffff8416602482015260448082018490528251808303909101815260649091019091526020810180517bffffffffffffffffffffffffffffffffffffffffffffffffffffffff167fa9059cbb000000000000000000000000000000000000000000000000000000001790526130839084906136a9565b6040805173ffffffffffffffffffffffffffffffffffffffff80861660248301528416604482015260648082018490528251808303909101815260849091019091526020810180517bffffffffffffffffffffffffffffffffffffffffffffffffffffffff167f23b872dd000000000000000000000000000000000000000000000000000000001790526131529085905b606061370b826040518060400160405280602081526020017f5361666545524332303a206c6f772d6c6576656c2063616c6c206661696c65648152508573ffffffffffffffffffffffffffffffffffffffff166137819092919063ffffffff16565b8051909150156130835780806020019051602081101561372a57600080fd5b5051613083576040517f08c379a000000000000000000000000000000000000000000000000000000000815260040180806020018281038252602a815260200180613aeb602a913960400191505060405180910390fd5b60606137908484600085613798565b949350505050565b60606137a385613964565b61380e57604080517f08c379a000000000000000000000000000000000000000000000000000000000815260206004820152601d60248201527f416464726573733a2063616c6c20746f206e6f6e2d636f6e7472616374000000604482015290519081900360640190fd5b600060608673ffffffffffffffffffffffffffffffffffffffff1685876040518082805190602001908083835b6020831061387857805182527fffffffffffffffffffffffffffffffffffffffffffffffffffffffffffffffe0909201916020918201910161383b565b6001836020036101000a03801982511681845116808217855250505050505090500191505060006040518083038185875af1925050503d80600081146138da576040519150601f19603f3d011682016040523d82523d6000602084013e6138df565b606091505b509150915081156138f35791506137909050565b8051156139035780518082602001fd5b6040517f08c379a0000000000000000000000000000000000000000000000000000000008152602060048201818152865160248401528651879391928392604401919085019080838360008315612c87578181015183820152602001612c6f565b3b151590565b60405180604001604052806000815260200160008152509056fe45524332303a207472616e7366657220746f20746865207a65726f206164647265737345524332303a206275726e20616d6f756e7420657863656564732062616c616e63654f776e61626c653a206e6577206f776e657220697320746865207a65726f206164647265737345524332303a20617070726f766520746f20746865207a65726f206164647265737345524332303a207472616e7366657220616d6f756e7420657863656564732062616c616e6365536166654d6174683a206d756c7469706c69636174696f6e206f766572666c6f7745524332303a207472616e7366657220616d6f756e74206578636565647320616c6c6f77616e636545524332303a206275726e2066726f6d20746865207a65726f206164647265737345524332303a207472616e736665722066726f6d20746865207a65726f206164647265737345524332303a20617070726f76652066726f6d20746865207a65726f20616464726573735361666545524332303a204552433230206f7065726174696f6e20646964206e6f74207375636365656445524332303a2064656372656173656420616c6c6f77616e63652062656c6f77207a65726fa26469706673582212204d0f0e14396e8429ce4a3d578812764b1d90ddbe2d29aefc2e3f65b2c74a571164736f6c634300060c00334f776e61626c653a206e6577206f776e657220697320746865207a65726f2061646472657373a2646970667358221220b0921bb7be675ff832185d8fd0a0dea67e8950f856194c3cae2d792cd8289f0d64736f6c634300060c0033",
  "immutableReferences": {},
  "source": "// SPDX-License-Identifier: MIT\n\npragma solidity ^0.6.0;\n\nimport \"@openzeppelin/contracts/access/Ownable.sol\";\nimport \"./libraries/UniERC20.sol\";\nimport \"./Emiswap.sol\";\n\ncontract EmiFactory is Ownable {\n    using UniERC20 for IERC20;\n\n    mapping(address => bool) private _adminTable;\n\n    modifier onlyAdmin() {\n        require(_adminTable[msg.sender], \"Admin: caller is not admin\");\n        _;\n    }\n\n    event Deployed(\n        address indexed emiswap,\n        address indexed token1,\n        address indexed token2\n    );\n\n    event adminGranted(address indexed admin, bool isGranted);\n\n    uint256 public constant MAX_FEE = 0.003e18; // 0.3%    \n\n    uint256 public fee;\n    uint256 public feeVault;\n    address public addressVault;\n    Emiswap[] public allPools;\n    mapping(Emiswap => bool) public isPool;\n    mapping(IERC20 => mapping(IERC20 => Emiswap)) public pools;\n    \n    function getAllPools() external view returns(Emiswap[] memory) {\n        return allPools;\n    }\n\n    function setFee(uint256 newFee) external onlyAdmin {\n        require(newFee <= MAX_FEE, \"Factory: fee should be <= 0.3%\");\n        fee = newFee;\n    }\n\n    function setFeeVault(uint256 newFeeVault) external onlyAdmin {\n        require(newFeeVault < fee, \"Factory: vault fee\");\n        feeVault = newFeeVault;\n    }\n\n    function setaddressVault(address newAddressVault) external onlyAdmin {\n        require(newAddressVault != address(0), \"Factory: vault\");\n        addressVault = newAddressVault;\n    }    \n\n    function setAdminGrant(address newAdmin, bool isGranted) external onlyOwner {\n        require( newAdmin != address(0), \"Admin address 0\");\n        _adminTable[newAdmin] = isGranted;\n        emit adminGranted(newAdmin, isGranted);\n    }\n\n    function deploy(IERC20 tokenA, IERC20 tokenB) external returns(Emiswap pool) {\n        require(tokenA != tokenB, \"Factory: not support same tokens\");\n        require(pools[tokenA][tokenB] == Emiswap(0), \"Factory: pool already exists\");\n\n        (IERC20 token1, IERC20 token2) = sortTokens(tokenA, tokenB);\n        IERC20[] memory tokens = new IERC20[](2);\n        tokens[0] = token1;\n        tokens[1] = token2;\n\n        string memory symbol1 = token1.uniSymbol();\n        string memory symbol2 = token2.uniSymbol();\n\n        pool = new Emiswap(\n            tokens,\n            string(abi.encodePacked(\"Emiswap V1 (\", symbol1, \"-\", symbol2, \")\")),\n            string(abi.encodePacked(\"EMI-V1-\", symbol1, \"-\", symbol2))\n        );\n\n        pool.transferOwnership(owner());\n        pools[token1][token2] = pool;\n        pools[token2][token1] = pool;\n        allPools.push(pool);\n        isPool[pool] = true;\n\n        emit Deployed(\n            address(pool),\n            address(token1),\n            address(token2)\n        );\n    }\n\n    function sortTokens(IERC20 tokenA, IERC20 tokenB) public pure returns(IERC20, IERC20) {\n        if (tokenA < tokenB) {\n            return (tokenA, tokenB);\n        }\n        return (tokenB, tokenA);\n    }\n}\n",
  "sourcePath": "/root/emiswap/mooniswap/contracts/EmiFactory.sol",
  "compiler": {
    "name": "solc",
    "version": "0.6.12+commit.27d51765.Emscripten.clang"
  },
  "schemaVersion": "3.2.5",
  "updatedAt": "2020-11-26T13:41:41.807Z",
  "networkType": "ethereum",
  "devdoc": {
    "kind": "dev",
    "methods": {
      "owner()": {
        "details": "Returns the address of the current owner."
      },
      "renounceOwnership()": {
        "details": "Leaves the contract without owner. It will not be possible to call `onlyOwner` functions anymore. Can only be called by the current owner. NOTE: Renouncing ownership will leave the contract without an owner, thereby removing any functionality that is only available to the owner."
      },
      "transferOwnership(address)": {
        "details": "Transfers ownership of the contract to a new account (`newOwner`). Can only be called by the current owner."
      }
    },
    "version": 1
  },
  "userdoc": {
    "kind": "user",
    "methods": {},
    "version": 1
  }
}