{
  "contractName": "Emiswap",
  "abi": [
    {
      "inputs": [
        {
          "internalType": "contract IERC20[]",
          "name": "assets",
          "type": "address[]"
        },
        {
          "internalType": "string",
          "name": "name",
          "type": "string"
        },
        {
          "internalType": "string",
          "name": "symbol",
          "type": "string"
        }
      ],
      "stateMutability": "nonpayable",
      "type": "constructor"
    },
    {
      "anonymous": false,
      "inputs": [
        {
          "indexed": true,
          "internalType": "address",
          "name": "owner",
          "type": "address"
        },
        {
          "indexed": true,
          "internalType": "address",
          "name": "spender",
          "type": "address"
        },
        {
          "indexed": false,
          "internalType": "uint256",
          "name": "value",
          "type": "uint256"
        }
      ],
      "name": "Approval",
      "type": "event"
    },
    {
      "anonymous": false,
      "inputs": [
        {
          "indexed": true,
          "internalType": "address",
          "name": "account",
          "type": "address"
        },
        {
          "indexed": false,
          "internalType": "uint256",
          "name": "amount",
          "type": "uint256"
        },
        {
          "indexed": false,
          "internalType": "address",
          "name": "referral",
          "type": "address"
        }
      ],
      "name": "Deposited",
      "type": "event"
    },
    {
      "anonymous": false,
      "inputs": [
        {
          "indexed": true,
          "internalType": "address",
          "name": "previousOwner",
          "type": "address"
        },
        {
          "indexed": true,
          "internalType": "address",
          "name": "newOwner",
          "type": "address"
        }
      ],
      "name": "OwnershipTransferred",
      "type": "event"
    },
    {
      "anonymous": false,
      "inputs": [
        {
          "indexed": true,
          "internalType": "address",
          "name": "account",
          "type": "address"
        },
        {
          "indexed": true,
          "internalType": "address",
          "name": "src",
          "type": "address"
        },
        {
          "indexed": true,
          "internalType": "address",
          "name": "dst",
          "type": "address"
        },
        {
          "indexed": false,
          "internalType": "uint256",
          "name": "amount",
          "type": "uint256"
        },
        {
          "indexed": false,
          "internalType": "uint256",
          "name": "result",
          "type": "uint256"
        },
        {
          "indexed": false,
          "internalType": "uint256",
          "name": "srcBalance",
          "type": "uint256"
        },
        {
          "indexed": false,
          "internalType": "uint256",
          "name": "dstBalance",
          "type": "uint256"
        },
        {
          "indexed": false,
          "internalType": "uint256",
          "name": "totalSupply",
          "type": "uint256"
        },
        {
          "indexed": false,
          "internalType": "address",
          "name": "referral",
          "type": "address"
        }
      ],
      "name": "Swapped",
      "type": "event"
    },
    {
      "anonymous": false,
      "inputs": [
        {
          "indexed": true,
          "internalType": "address",
          "name": "account",
          "type": "address"
        },
        {
          "indexed": true,
          "internalType": "address",
          "name": "to",
          "type": "address"
        },
        {
          "indexed": false,
          "internalType": "uint256",
          "name": "resultVault",
          "type": "uint256"
        }
      ],
      "name": "Swapped2",
      "type": "event"
    },
    {
      "anonymous": false,
      "inputs": [
        {
          "indexed": true,
          "internalType": "address",
          "name": "from",
          "type": "address"
        },
        {
          "indexed": true,
          "internalType": "address",
          "name": "to",
          "type": "address"
        },
        {
          "indexed": false,
          "internalType": "uint256",
          "name": "value",
          "type": "uint256"
        }
      ],
      "name": "Transfer",
      "type": "event"
    },
    {
      "anonymous": false,
      "inputs": [
        {
          "indexed": true,
          "internalType": "address",
          "name": "account",
          "type": "address"
        },
        {
          "indexed": false,
          "internalType": "uint256",
          "name": "amount",
          "type": "uint256"
        }
      ],
      "name": "Withdrawn",
      "type": "event"
    },
    {
      "inputs": [],
      "name": "BASE_SUPPLY",
      "outputs": [
        {
          "internalType": "uint256",
          "name": "",
          "type": "uint256"
        }
      ],
      "stateMutability": "view",
      "type": "function"
    },
    {
      "inputs": [],
      "name": "FEE_DENOMINATOR",
      "outputs": [
        {
          "internalType": "uint256",
          "name": "",
          "type": "uint256"
        }
      ],
      "stateMutability": "view",
      "type": "function"
    },
    {
      "inputs": [],
      "name": "REFERRAL_SHARE",
      "outputs": [
        {
          "internalType": "uint256",
          "name": "",
          "type": "uint256"
        }
      ],
      "stateMutability": "view",
      "type": "function"
    },
    {
      "inputs": [
        {
          "internalType": "address",
          "name": "owner",
          "type": "address"
        },
        {
          "internalType": "address",
          "name": "spender",
          "type": "address"
        }
      ],
      "name": "allowance",
      "outputs": [
        {
          "internalType": "uint256",
          "name": "",
          "type": "uint256"
        }
      ],
      "stateMutability": "view",
      "type": "function"
    },
    {
      "inputs": [
        {
          "internalType": "address",
          "name": "spender",
          "type": "address"
        },
        {
          "internalType": "uint256",
          "name": "amount",
          "type": "uint256"
        }
      ],
      "name": "approve",
      "outputs": [
        {
          "internalType": "bool",
          "name": "",
          "type": "bool"
        }
      ],
      "stateMutability": "nonpayable",
      "type": "function"
    },
    {
      "inputs": [
        {
          "internalType": "address",
          "name": "account",
          "type": "address"
        }
      ],
      "name": "balanceOf",
      "outputs": [
        {
          "internalType": "uint256",
          "name": "",
          "type": "uint256"
        }
      ],
      "stateMutability": "view",
      "type": "function"
    },
    {
      "inputs": [],
      "name": "decimals",
      "outputs": [
        {
          "internalType": "uint8",
          "name": "",
          "type": "uint8"
        }
      ],
      "stateMutability": "view",
      "type": "function"
    },
    {
      "inputs": [
        {
          "internalType": "address",
          "name": "spender",
          "type": "address"
        },
        {
          "internalType": "uint256",
          "name": "subtractedValue",
          "type": "uint256"
        }
      ],
      "name": "decreaseAllowance",
      "outputs": [
        {
          "internalType": "bool",
          "name": "",
          "type": "bool"
        }
      ],
      "stateMutability": "nonpayable",
      "type": "function"
    },
    {
      "inputs": [],
      "name": "factory",
      "outputs": [
        {
          "internalType": "contract IFactory",
          "name": "",
          "type": "address"
        }
      ],
      "stateMutability": "view",
      "type": "function"
    },
    {
      "inputs": [
        {
          "internalType": "address",
          "name": "spender",
          "type": "address"
        },
        {
          "internalType": "uint256",
          "name": "addedValue",
          "type": "uint256"
        }
      ],
      "name": "increaseAllowance",
      "outputs": [
        {
          "internalType": "bool",
          "name": "",
          "type": "bool"
        }
      ],
      "stateMutability": "nonpayable",
      "type": "function"
    },
    {
      "inputs": [
        {
          "internalType": "contract IERC20",
          "name": "",
          "type": "address"
        }
      ],
      "name": "isToken",
      "outputs": [
        {
          "internalType": "bool",
          "name": "",
          "type": "bool"
        }
      ],
      "stateMutability": "view",
      "type": "function"
    },
    {
      "inputs": [],
      "name": "name",
      "outputs": [
        {
          "internalType": "string",
          "name": "",
          "type": "string"
        }
      ],
      "stateMutability": "view",
      "type": "function"
    },
    {
      "inputs": [],
      "name": "owner",
      "outputs": [
        {
          "internalType": "address",
          "name": "",
          "type": "address"
        }
      ],
      "stateMutability": "view",
      "type": "function"
    },
    {
      "inputs": [],
      "name": "renounceOwnership",
      "outputs": [],
      "stateMutability": "nonpayable",
      "type": "function"
    },
    {
      "inputs": [],
      "name": "symbol",
      "outputs": [
        {
          "internalType": "string",
          "name": "",
          "type": "string"
        }
      ],
      "stateMutability": "view",
      "type": "function"
    },
    {
      "inputs": [
        {
          "internalType": "uint256",
          "name": "",
          "type": "uint256"
        }
      ],
      "name": "tokens",
      "outputs": [
        {
          "internalType": "contract IERC20",
          "name": "",
          "type": "address"
        }
      ],
      "stateMutability": "view",
      "type": "function"
    },
    {
      "inputs": [],
      "name": "totalSupply",
      "outputs": [
        {
          "internalType": "uint256",
          "name": "",
          "type": "uint256"
        }
      ],
      "stateMutability": "view",
      "type": "function"
    },
    {
      "inputs": [
        {
          "internalType": "address",
          "name": "recipient",
          "type": "address"
        },
        {
          "internalType": "uint256",
          "name": "amount",
          "type": "uint256"
        }
      ],
      "name": "transfer",
      "outputs": [
        {
          "internalType": "bool",
          "name": "",
          "type": "bool"
        }
      ],
      "stateMutability": "nonpayable",
      "type": "function"
    },
    {
      "inputs": [
        {
          "internalType": "address",
          "name": "sender",
          "type": "address"
        },
        {
          "internalType": "address",
          "name": "recipient",
          "type": "address"
        },
        {
          "internalType": "uint256",
          "name": "amount",
          "type": "uint256"
        }
      ],
      "name": "transferFrom",
      "outputs": [
        {
          "internalType": "bool",
          "name": "",
          "type": "bool"
        }
      ],
      "stateMutability": "nonpayable",
      "type": "function"
    },
    {
      "inputs": [
        {
          "internalType": "address",
          "name": "newOwner",
          "type": "address"
        }
      ],
      "name": "transferOwnership",
      "outputs": [],
      "stateMutability": "nonpayable",
      "type": "function"
    },
    {
      "inputs": [
        {
          "internalType": "contract IERC20",
          "name": "",
          "type": "address"
        }
      ],
      "name": "virtualBalancesForAddition",
      "outputs": [
        {
          "internalType": "uint216",
          "name": "balance",
          "type": "uint216"
        },
        {
          "internalType": "uint40",
          "name": "time",
          "type": "uint40"
        }
      ],
      "stateMutability": "view",
      "type": "function"
    },
    {
      "inputs": [
        {
          "internalType": "contract IERC20",
          "name": "",
          "type": "address"
        }
      ],
      "name": "virtualBalancesForRemoval",
      "outputs": [
        {
          "internalType": "uint216",
          "name": "balance",
          "type": "uint216"
        },
        {
          "internalType": "uint40",
          "name": "time",
          "type": "uint40"
        }
      ],
      "stateMutability": "view",
      "type": "function"
    },
    {
      "inputs": [
        {
          "internalType": "contract IERC20",
          "name": "",
          "type": "address"
        }
      ],
      "name": "volumes",
      "outputs": [
        {
          "internalType": "uint128",
          "name": "confirmed",
          "type": "uint128"
        },
        {
          "internalType": "uint128",
          "name": "result",
          "type": "uint128"
        }
      ],
      "stateMutability": "view",
      "type": "function"
    },
    {
      "inputs": [],
      "name": "fee",
      "outputs": [
        {
          "internalType": "uint256",
          "name": "",
          "type": "uint256"
        }
      ],
      "stateMutability": "view",
      "type": "function"
    },
    {
      "inputs": [],
      "name": "feeVault",
      "outputs": [
        {
          "internalType": "uint256",
          "name": "",
          "type": "uint256"
        }
      ],
      "stateMutability": "view",
      "type": "function"
    },
    {
      "inputs": [],
      "name": "addressVault",
      "outputs": [
        {
          "internalType": "address",
          "name": "",
          "type": "address"
        }
      ],
      "stateMutability": "view",
      "type": "function"
    },
    {
      "inputs": [],
      "name": "getTokens",
      "outputs": [
        {
          "internalType": "contract IERC20[]",
          "name": "",
          "type": "address[]"
        }
      ],
      "stateMutability": "view",
      "type": "function"
    },
    {
      "inputs": [],
      "name": "decayPeriod",
      "outputs": [
        {
          "internalType": "uint256",
          "name": "",
          "type": "uint256"
        }
      ],
      "stateMutability": "pure",
      "type": "function"
    },
    {
      "inputs": [
        {
          "internalType": "contract IERC20",
          "name": "token",
          "type": "address"
        }
      ],
      "name": "getBalanceForAddition",
      "outputs": [
        {
          "internalType": "uint256",
          "name": "",
          "type": "uint256"
        }
      ],
      "stateMutability": "view",
      "type": "function"
    },
    {
      "inputs": [
        {
          "internalType": "contract IERC20",
          "name": "token",
          "type": "address"
        }
      ],
      "name": "getBalanceForRemoval",
      "outputs": [
        {
          "internalType": "uint256",
          "name": "",
          "type": "uint256"
        }
      ],
      "stateMutability": "view",
      "type": "function"
    },
    {
      "inputs": [
        {
          "internalType": "contract IERC20",
          "name": "src",
          "type": "address"
        },
        {
          "internalType": "contract IERC20",
          "name": "dst",
          "type": "address"
        },
        {
          "internalType": "uint256",
          "name": "amount",
          "type": "uint256"
        }
      ],
      "name": "getReturn",
      "outputs": [
        {
          "internalType": "uint256",
          "name": "",
          "type": "uint256"
        },
        {
          "internalType": "uint256",
          "name": "",
          "type": "uint256"
        }
      ],
      "stateMutability": "view",
      "type": "function"
    },
    {
      "inputs": [
        {
          "internalType": "uint256[]",
          "name": "amounts",
          "type": "uint256[]"
        },
        {
          "internalType": "uint256[]",
          "name": "minAmounts",
          "type": "uint256[]"
        },
        {
          "internalType": "address",
          "name": "referral",
          "type": "address"
        }
      ],
      "name": "deposit",
      "outputs": [
        {
          "internalType": "uint256",
          "name": "fairSupply",
          "type": "uint256"
        }
      ],
      "stateMutability": "nonpayable",
      "type": "function"
    },
    {
      "inputs": [
        {
          "internalType": "uint256",
          "name": "amount",
          "type": "uint256"
        },
        {
          "internalType": "uint256[]",
          "name": "minReturns",
          "type": "uint256[]"
        }
      ],
      "name": "withdraw",
      "outputs": [],
      "stateMutability": "nonpayable",
      "type": "function"
    },
    {
      "inputs": [
        {
          "internalType": "contract IERC20",
          "name": "src",
          "type": "address"
        },
        {
          "internalType": "contract IERC20",
          "name": "dst",
          "type": "address"
        },
        {
          "internalType": "uint256",
          "name": "amount",
          "type": "uint256"
        },
        {
          "internalType": "uint256",
          "name": "minReturn",
          "type": "uint256"
        },
        {
          "internalType": "address",
          "name": "to",
          "type": "address"
        },
        {
          "internalType": "address",
          "name": "referral",
          "type": "address"
        }
      ],
      "name": "swap",
      "outputs": [
        {
          "internalType": "uint256",
          "name": "result",
          "type": "uint256"
        }
      ],
      "stateMutability": "nonpayable",
      "type": "function"
    },
    {
      "inputs": [
        {
          "internalType": "contract IERC20",
          "name": "token",
          "type": "address"
        },
        {
          "internalType": "uint256",
          "name": "amount",
          "type": "uint256"
        }
      ],
      "name": "rescueFunds",
      "outputs": [],
      "stateMutability": "nonpayable",
      "type": "function"
    }
  ],
  "bytecode": "0x60806040523480156200001157600080fd5b506040516200429538038062004295833981810160405260608110156200003757600080fd5b81019080805160405193929190846401000000008211156200005857600080fd5b9083019060208201858111156200006e57600080fd5b82518660208202830111640100000000821117156200008c57600080fd5b82525081516020918201928201910280838360005b83811015620000bb578181015183820152602001620000a1565b5050505090500160405260200180516040519392919084640100000000821115620000e557600080fd5b908301906020820185811115620000fb57600080fd5b82516401000000008111828201881017156200011657600080fd5b82525081516020918201929091019080838360005b83811015620001455781810151838201526020016200012b565b50505050905090810190601f168015620001735780820380516001836020036101000a031916815260200191505b50604052602001805160405193929190846401000000008211156200019757600080fd5b908301906020820185811115620001ad57600080fd5b8251640100000000811182820188101715620001c857600080fd5b82525081516020918201929091019080838360005b83811015620001f7578181015183820152602001620001dd565b50505050905090810190601f168015620002255780820380516001836020036101000a031916815260200191505b5060405250508251839150829062000245906003906020850190620004fa565b5080516200025b906004906020840190620004fa565b50506005805460ff1916601217905550600160065560006200027c620004f6565b600780546001600160a01b0319166001600160a01b038316908117909155604051919250906000907f8be0079c531659141344cd1fd0a4f28419497f9722a3daafe3b4186f6b6457e0908290a350600880546001600160a01b03191633179055815162000330576040805162461bcd60e51b815260206004820152601660248201527f456d69737761703a206e616d6520697320656d70747900000000000000000000604482015290519081900360640190fd5b600081511162000387576040805162461bcd60e51b815260206004820152601860248201527f456d69737761703a2073796d626f6c20697320656d7074790000000000000000604482015290519081900360640190fd5b8251600214620003de576040805162461bcd60e51b815260206004820152601e60248201527f456d69737761703a206f6e6c79203220746f6b656e7320616c6c6f7765640000604482015290519081900360640190fd5b600880546001600160a01b031916331790558251620004059060099060208601906200057f565b5060005b8351811015620004ec57600a60008583815181106200042457fe5b6020908102919091018101516001600160a01b031682528101919091526040016000205460ff16156200049e576040805162461bcd60e51b815260206004820152601960248201527f456d69737761703a206475706c696361746520746f6b656e7300000000000000604482015290519081900360640190fd5b6001600a6000868481518110620004b157fe5b6020908102919091018101516001600160a01b03168252810191909152604001600020805460ff191691151591909117905560010162000409565b505050506200061d565b3390565b828054600181600116156101000203166002900490600052602060002090601f016020900481019282601f106200053d57805160ff19168380011785556200056d565b828001600101855582156200056d579182015b828111156200056d57825182559160200191906001019062000550565b506200057b929150620005e5565b5090565b828054828255906000526020600020908101928215620005d7579160200282015b82811115620005d757825182546001600160a01b0319166001600160a01b03909116178255602090920191600190910190620005a0565b506200057b929150620005fc565b5b808211156200057b5760008155600101620005e6565b5b808211156200057b5780546001600160a01b0319168155600101620005fd565b613c68806200062d6000396000f3fe608060405234801561001057600080fd5b50600436106102415760003560e01c806378e3214f11610145578063b21b5a21116100bd578063d7d3aab51161008c578063ddca3f4311610071578063ddca3f431461097f578063e7ff42c914610987578063f2fde38b146109ba57610241565b8063d7d3aab514610911578063dd62ed3e1461094457610241565b8063b21b5a21146108f1578063baf13a0a146108f9578063c45a015514610901578063d73792a91461090957610241565b806395d89b4111610114578063a9059cbb116100f9578063a9059cbb146107ec578063aa6ca80814610825578063b1ec4c401461087d57610241565b806395d89b41146107ab578063a457c2d7146107b357610241565b806378e3214f1461063b5780637dc20382146106745780637e067a60146106cb5780638da5cb5b146107a357610241565b8063478222c2116101d85780635915d806116101a75780636edc2c091161018c5780636edc2c09146105cd57806370a0823114610600578063715018a61461063357610241565b80635915d806146104b15780635ed9156d1461055d57610241565b8063478222c21461045357806348d67e1b1461045b5780634f64b2be1461046357806356929070146104a957610241565b80631e1401f8116102145780631e1401f81461035d57806323b872dd146103b9578063313ce567146103fc578063395093511461041a57610241565b806306fdde0314610246578063095ea7b3146102c357806318160ddd1461031057806319f373611461032a575b600080fd5b61024e6109ed565b6040805160208082528351818301528351919283929083019185019080838360005b83811015610288578181015183820152602001610270565b50505050905090810190601f1680156102b55780820380516001836020036101000a031916815260200191505b509250505060405180910390f35b6102fc600480360360408110156102d957600080fd5b5073ffffffffffffffffffffffffffffffffffffffff8135169060200135610aa1565b604080519115158252519081900360200190f35b610318610abf565b60408051918252519081900360200190f35b6102fc6004803603602081101561034057600080fd5b503573ffffffffffffffffffffffffffffffffffffffff16610ac5565b6103a06004803603606081101561037357600080fd5b5073ffffffffffffffffffffffffffffffffffffffff813581169160208101359091169060400135610ada565b6040805192835260208301919091528051918290030190f35b6102fc600480360360608110156103cf57600080fd5b5073ffffffffffffffffffffffffffffffffffffffff813581169160208101359091169060400135610b06565b610404610ba8565b6040805160ff9092168252519081900360200190f35b6102fc6004803603604081101561043057600080fd5b5073ffffffffffffffffffffffffffffffffffffffff8135169060200135610bb1565b610318610c0c565b610318610ca8565b6104806004803603602081101561047957600080fd5b5035610cae565b6040805173ffffffffffffffffffffffffffffffffffffffff9092168252519081900360200190f35b610480610ce2565b61055b600480360360408110156104c757600080fd5b813591908101906040810160208201356401000000008111156104e957600080fd5b8201836020820111156104fb57600080fd5b8035906020019184602083028401116401000000008311171561051d57600080fd5b919080806020026020016040519081016040528093929190818152602001838360200280828437600092019190915250929550610d4d945050505050565b005b6105906004803603602081101561057357600080fd5b503573ffffffffffffffffffffffffffffffffffffffff16610fae565b604080517affffffffffffffffffffffffffffffffffffffffffffffffffffff909316835264ffffffffff90911660208301528051918290030190f35b610590600480360360208110156105e357600080fd5b503573ffffffffffffffffffffffffffffffffffffffff16611005565b6103186004803603602081101561061657600080fd5b503573ffffffffffffffffffffffffffffffffffffffff1661105c565b61055b611084565b61055b6004803603604081101561065157600080fd5b5073ffffffffffffffffffffffffffffffffffffffff813516906020013561119b565b610318600480360360c081101561068a57600080fd5b5073ffffffffffffffffffffffffffffffffffffffff81358116916020810135821691604082013591606081013591608082013581169160a00135166114b3565b610318600480360360608110156106e157600080fd5b8101906020810181356401000000008111156106fc57600080fd5b82018360208201111561070e57600080fd5b8035906020019184602083028401116401000000008311171561073057600080fd5b91939092909160208101903564010000000081111561074e57600080fd5b82018360208201111561076057600080fd5b8035906020019184602083028401116401000000008311171561078257600080fd5b91935091503573ffffffffffffffffffffffffffffffffffffffff16611b04565b610480612264565b61024e612280565b6102fc600480360360408110156107c957600080fd5b5073ffffffffffffffffffffffffffffffffffffffff81351690602001356122ff565b6102fc6004803603604081101561080257600080fd5b5073ffffffffffffffffffffffffffffffffffffffff8135169060200135612374565b61082d612388565b60408051602080825283518183015283519192839290830191858101910280838360005b83811015610869578181015183820152602001610851565b505050509050019250505060405180910390f35b6108b06004803603602081101561089357600080fd5b503573ffffffffffffffffffffffffffffffffffffffff166123f6565b60405180836fffffffffffffffffffffffffffffffff168152602001826fffffffffffffffffffffffffffffffff1681526020019250505060405180910390f35b610318612432565b610318612437565b61048061243d565b610318612459565b6103186004803603602081101561092757600080fd5b503573ffffffffffffffffffffffffffffffffffffffff16612465565b6103186004803603604081101561095a57600080fd5b5073ffffffffffffffffffffffffffffffffffffffff8135811691602001351661251b565b610318612553565b6103186004803603602081101561099d57600080fd5b503573ffffffffffffffffffffffffffffffffffffffff166125be565b61055b600480360360208110156109d057600080fd5b503573ffffffffffffffffffffffffffffffffffffffff16612674565b60038054604080516020601f60027fffffffffffffffffffffffffffffffffffffffffffffffffffffffffffffffff610100600188161502019095169490940493840181900481028201810190925282815260609390929091830182828015610a975780601f10610a6c57610100808354040283529160200191610a97565b820191906000526020600020905b815481529060010190602001808311610a7a57829003601f168201915b5050505050905090565b6000610ab5610aae612816565b848461281a565b5060015b92915050565b60025490565b600a6020526000908152604090205460ff1681565b600080610afa858585610aec89612465565b610af5896125be565b612961565b91509150935093915050565b6000610b13848484612ab8565b610b9d84610b1f612816565b610b9885604051806060016040528060288152602001613b526028913973ffffffffffffffffffffffffffffffffffffffff8a16600090815260016020526040812090610b6a612816565b73ffffffffffffffffffffffffffffffffffffffff1681526020810191909152604001600020549190612c88565b61281a565b5060015b9392505050565b60055460ff1690565b6000610ab5610bbe612816565b84610b988560016000610bcf612816565b73ffffffffffffffffffffffffffffffffffffffff908116825260208083019390935260409182016000908120918c168152925290205490612d39565b600854604080517f478222c2000000000000000000000000000000000000000000000000000000008152905160009273ffffffffffffffffffffffffffffffffffffffff169163478222c2916004808301926020929190829003018186803b158015610c7757600080fd5b505afa158015610c8b573d6000803e3d6000fd5b505050506040513d6020811015610ca157600080fd5b5051905090565b61012c90565b60098181548110610cbb57fe5b60009182526020909120015473ffffffffffffffffffffffffffffffffffffffff16905081565b600854604080517f56929070000000000000000000000000000000000000000000000000000000008152905160009273ffffffffffffffffffffffffffffffffffffffff16916356929070916004808301926020929190829003018186803b158015610c7757600080fd5b60026006541415610dbf57604080517f08c379a000000000000000000000000000000000000000000000000000000000815260206004820152601f60248201527f5265656e7472616e637947756172643a207265656e7472616e742063616c6c00604482015290519081900360640190fd5b60026006556000610dce610abf565b9050610dda3384612dad565b60005b600954811015610f6d57600060098281548110610df657fe5b600091825260208220015473ffffffffffffffffffffffffffffffffffffffff169150610e238230612ef7565b90506000610e3b85610e35848a612fbf565b90613032565b9050610e5e73ffffffffffffffffffffffffffffffffffffffff841633836130b3565b855184101580610e815750858481518110610e7557fe5b60200260200101518110155b610eec57604080517f08c379a000000000000000000000000000000000000000000000000000000000815260206004820152601d60248201527f456d69737761703a20726573756c74206973206e6f7420656e6f756768000000604482015290519081900360640190fd5b610f2782610efa878a613136565b73ffffffffffffffffffffffffffffffffffffffff86166000908152600c602052604090209190886131ad565b610f6282610f35878a613136565b73ffffffffffffffffffffffffffffffffffffffff86166000908152600d602052604090209190886131ad565b505050600101610ddd565b5060408051848152905133917f7084f5476618d8e60b11ef0d7d3f06914655adb8793e28ff7f018d4c76d505d5919081900360200190a25050600160065550565b600d602052600090815260409020547affffffffffffffffffffffffffffffffffffffffffffffffffffff8116907b01000000000000000000000000000000000000000000000000000000900464ffffffffff1682565b600c602052600090815260409020547affffffffffffffffffffffffffffffffffffffffffffffffffffff8116907b01000000000000000000000000000000000000000000000000000000900464ffffffffff1682565b73ffffffffffffffffffffffffffffffffffffffff1660009081526020819052604090205490565b61108c612816565b73ffffffffffffffffffffffffffffffffffffffff166110aa612264565b73ffffffffffffffffffffffffffffffffffffffff161461112c57604080517f08c379a000000000000000000000000000000000000000000000000000000000815260206004820181905260248201527f4f776e61626c653a2063616c6c6572206973206e6f7420746865206f776e6572604482015290519081900360640190fd5b60075460405160009173ffffffffffffffffffffffffffffffffffffffff16907f8be0079c531659141344cd1fd0a4f28419497f9722a3daafe3b4186f6b6457e0908390a3600780547fffffffffffffffffffffffff0000000000000000000000000000000000000000169055565b6002600654141561120d57604080517f08c379a000000000000000000000000000000000000000000000000000000000815260206004820152601f60248201527f5265656e7472616e637947756172643a207265656e7472616e742063616c6c00604482015290519081900360640190fd5b600260065561121a612816565b73ffffffffffffffffffffffffffffffffffffffff16611238612264565b73ffffffffffffffffffffffffffffffffffffffff16146112ba57604080517f08c379a000000000000000000000000000000000000000000000000000000000815260206004820181905260248201527f4f776e61626c653a2063616c6c6572206973206e6f7420746865206f776e6572604482015290519081900360640190fd5b60095460609067ffffffffffffffff811180156112d657600080fd5b50604051908082528060200260200182016040528015611300578160200160208202803683370190505b50905060005b815181101561136757611348306009838154811061132057fe5b60009182526020909120015473ffffffffffffffffffffffffffffffffffffffff1690612ef7565b82828151811061135457fe5b6020908102919091010152600101611306565b5061138973ffffffffffffffffffffffffffffffffffffffff841633846130b3565b60005b815181101561142f578181815181106113a157fe5b60200260200101516113ba306009848154811061132057fe5b101561142757604080517f08c379a000000000000000000000000000000000000000000000000000000000815260206004820152601660248201527f456d69737761703a206163636573732064656e69656400000000000000000000604482015290519081900360640190fd5b60010161138c565b506103e861143c3061105c565b10156114a957604080517f08c379a000000000000000000000000000000000000000000000000000000000815260206004820152601660248201527f456d69737761703a206163636573732064656e69656400000000000000000000604482015290519081900360640190fd5b5050600160065550565b60006002600654141561152757604080517f08c379a000000000000000000000000000000000000000000000000000000000815260206004820152601f60248201527f5265656e7472616e637947756172643a207265656e7472616e742063616c6c00604482015290519081900360640190fd5b600260065573ffffffffffffffffffffffffffffffffffffffff87166115ae57604080517f08c379a000000000000000000000000000000000000000000000000000000000815260206004820152601c60248201527f456d69737761703a206f6e6c7920746f6b656e7320616c6c6f77656400000000604482015290519081900360640190fd5b6115b6613a3d565b60408051808201909152806115e173ffffffffffffffffffffffffffffffffffffffff8b1630612ef7565b815260200161160673ffffffffffffffffffffffffffffffffffffffff8a1630612ef7565b9052805173ffffffffffffffffffffffffffffffffffffffff8a166000908152600c602090815260408083208151808301909252547affffffffffffffffffffffffffffffffffffffffffffffffffffff811682527b01000000000000000000000000000000000000000000000000000000900464ffffffffff1691810191909152929350916116a19161169a919061323b565b83516132b9565b60208381015173ffffffffffffffffffffffffffffffffffffffff8b166000908152600d835260408082208151808301909252547affffffffffffffffffffffffffffffffffffffffffffffffffffff811682527b01000000000000000000000000000000000000000000000000000000900464ffffffffff169381019390935292935061173c916117329161323b565b84602001516132d0565b905061175e73ffffffffffffffffffffffffffffffffffffffff8b16896132df565b825160009061178d9061178773ffffffffffffffffffffffffffffffffffffffff8e1630612ef7565b90613136565b9050600061179e8c8c848787612961565b909650905085158015906117b25750888610155b61181d57604080517f08c379a000000000000000000000000000000000000000000000000000000000815260206004820152601d60248201527f456d69737761703a2072657475726e206973206e6f7420656e6f756768000000604482015290519081900360640190fd5b61183e73ffffffffffffffffffffffffffffffffffffffff8c1689886130b3565b801561186d5761186d61184f610ce2565b73ffffffffffffffffffffffffffffffffffffffff8d1690836130b3565b845184146118ad576118ad6118828584612d39565b73ffffffffffffffffffffffffffffffffffffffff8e166000908152600c60205260409020906133cd565b846020015183146118f0576118f06118c58488613136565b73ffffffffffffffffffffffffffffffffffffffff8d166000908152600d60205260409020906133cd565b845173ffffffffffffffffffffffffffffffffffffffff8d166000908152600d602052604090206119209161343d565b60208086015173ffffffffffffffffffffffffffffffffffffffff8d166000908152600c90925260409091206119559161343d565b8a73ffffffffffffffffffffffffffffffffffffffff168c73ffffffffffffffffffffffffffffffffffffffff163373ffffffffffffffffffffffffffffffffffffffff167f86c49b5d8577da08444947f1427d23ef191cfabf2c0788f93324d79e926a9302858a8a600001518b602001516119cf610abf565b604080519586526020860194909452848401929092526060840152608083015273ffffffffffffffffffffffffffffffffffffffff8d1660a0830152519081900360c00190a460408051828152905173ffffffffffffffffffffffffffffffffffffffff8a169133917f2ff1ad11b6e7211d4d0cc86e3a449ecc036fd7abfe355401bdb6304dbf9b7a2b9181900360200190a35073ffffffffffffffffffffffffffffffffffffffff909a166000908152600b6020526040902080547001000000000000000000000000000000006fffffffffffffffffffffffffffffffff808316909d018d167fffffffffffffffffffffffffffffffff00000000000000000000000000000000909216919091178181048d1687018d169091029b169a909a17909955505060016006559695505050505050565b600060026006541415611b7857604080517f08c379a000000000000000000000000000000000000000000000000000000000815260206004820152601f60248201527f5265656e7472616e637947756172643a207265656e7472616e742063616c6c00604482015290519081900360640190fd5b6002600655600980546040805160208084028201810190925282815260609390929091830182828015611be157602002820191906000526020600020905b815473ffffffffffffffffffffffffffffffffffffffff168152600190910190602001808311611bb6575b5093945050508715801592509050611bf95750805186145b611c6457604080517f08c379a000000000000000000000000000000000000000000000000000000000815260206004820152601d60248201527f456d69737761703a2077726f6e6720616d6f756e7473206c656e677468000000604482015290519081900360640190fd5b600087876000818110611c7357fe5b90506020020135118015611c9a5750600087876001818110611c9157fe5b90506020020135115b611d0557604080517f08c379a000000000000000000000000000000000000000000000000000000000815260206004820152601a60248201527f456d69737761703a2077726f6e672076616c7565207573616765000000000000604482015290519081900360640190fd5b60608667ffffffffffffffff81118015611d1e57600080fd5b50604051908082528060200260200182016040528015611d48578160200160208202803683370190505b50905060005b8151811015611db257611d9330848381518110611d6757fe5b602002602001015173ffffffffffffffffffffffffffffffffffffffff16612ef790919063ffffffff16565b828281518110611d9f57fe5b6020908102919091010152600101611d4e565b506000611dbd610abf565b905080611e1657611dd16103e86063612fbf565b9350611ddf306103e86134a4565b60005b88811015611e1057611e06858b8b84818110611dfa57fe5b905060200201356132b9565b9450600101611de2565b50611e95565b7fffffffffffffffffffffffffffffffffffffffffffffffffffffffffffffffff935060005b88811015611e9357611e8985611e84858481518110611e5757fe5b6020026020010151610e358e8e87818110611e6e57fe5b9050602002013587612fbf90919063ffffffff16565b6132d0565b9450600101611e3c565b505b8360005b898110156120a55760008b8b83818110611eaf57fe5b9050602002013511611f2257604080517f08c379a000000000000000000000000000000000000000000000000000000000815260206004820152601760248201527f456d69737761703a20616d6f756e74206973207a65726f000000000000000000604482015290519081900360640190fd5b60008315611f6657611f6184610e3560018703611f5b878a8881518110611f4557fe5b6020026020010151612fbf90919063ffffffff16565b90612d39565b611f7a565b8b8b83818110611f7257fe5b905060200201355b9050898983818110611f8857fe5b90506020020135811015611ffd57604080517f08c379a000000000000000000000000000000000000000000000000000000000815260206004820152601e60248201527f456d69737761703a206d696e416d6f756e74206e6f7420726561636865640000604482015290519081900360640190fd5b6120398187848151811061200d57fe5b602002602001015173ffffffffffffffffffffffffffffffffffffffff166132df90919063ffffffff16565b831561209c57600061206886848151811061205057fe5b6020026020010151611787308a8781518110611d6757fe5b905061209888611e8488868151811061207d57fe5b6020026020010151610e35858a612fbf90919063ffffffff16565b9750505b50600101611e99565b5081156121895760005b89811015612187576121448482815181106120c657fe5b60200260200101516120e18886612d3990919063ffffffff16565b85600d60008a87815181106120f257fe5b602002602001015173ffffffffffffffffffffffffffffffffffffffff1673ffffffffffffffffffffffffffffffffffffffff1681526020019081526020016000206131ad909392919063ffffffff16565b61217f84828151811061215357fe5b602002602001015161216e8886612d3990919063ffffffff16565b85600c60008a87815181106120f257fe5b6001016120af565b505b600085116121f857604080517f08c379a000000000000000000000000000000000000000000000000000000000815260206004820152601e60248201527f456d6e69737761703a20726573756c74206973206e6f7420656e6f7567680000604482015290519081900360640190fd5b61220233866134a4565b6040805186815273ffffffffffffffffffffffffffffffffffffffff88166020820152815133927fb4e1304f97b5093610f51b33ddab6622388422e2dac138b0d32f93dcfbd39edf928290030190a25050600160065550909695505050505050565b60075473ffffffffffffffffffffffffffffffffffffffff1690565b60048054604080516020601f60027fffffffffffffffffffffffffffffffffffffffffffffffffffffffffffffffff610100600188161502019095169490940493840181900481028201810190925282815260609390929091830182828015610a975780601f10610a6c57610100808354040283529160200191610a97565b6000610ab561230c612816565b84610b9885604051806060016040528060258152602001613c0e6025913960016000612336612816565b73ffffffffffffffffffffffffffffffffffffffff908116825260208083019390935260409182016000908120918d16815292529020549190612c88565b6000610ab5612381612816565b8484612ab8565b60606009805480602002602001604051908101604052809291908181526020018280548015610a9757602002820191906000526020600020905b815473ffffffffffffffffffffffffffffffffffffffff1681526001909101906020018083116123c2575050505050905090565b600b602052600090815260409020546fffffffffffffffffffffffffffffffff8082169170010000000000000000000000000000000090041682565b601481565b6103e881565b60085473ffffffffffffffffffffffffffffffffffffffff1681565b670de0b6b3a764000081565b60008061248873ffffffffffffffffffffffffffffffffffffffff841630612ef7565b73ffffffffffffffffffffffffffffffffffffffff84166000908152600c60209081526040918290208251808401909352547affffffffffffffffffffffffffffffffffffffffffffffffffffff811683527b01000000000000000000000000000000000000000000000000000000900464ffffffffff1690820152909150610ba190612515908361323b565b826132b9565b73ffffffffffffffffffffffffffffffffffffffff918216600090815260016020908152604080832093909416825291909152205490565b600854604080517fddca3f43000000000000000000000000000000000000000000000000000000008152905160009273ffffffffffffffffffffffffffffffffffffffff169163ddca3f43916004808301926020929190829003018186803b158015610c7757600080fd5b6000806125e173ffffffffffffffffffffffffffffffffffffffff841630612ef7565b73ffffffffffffffffffffffffffffffffffffffff84166000908152600d60209081526040918290208251808401909352547affffffffffffffffffffffffffffffffffffffffffffffffffffff811683527b01000000000000000000000000000000000000000000000000000000900464ffffffffff1690820152909150610ba19061266e908361323b565b826132d0565b61267c612816565b73ffffffffffffffffffffffffffffffffffffffff1661269a612264565b73ffffffffffffffffffffffffffffffffffffffff161461271c57604080517f08c379a000000000000000000000000000000000000000000000000000000000815260206004820181905260248201527f4f776e61626c653a2063616c6c6572206973206e6f7420746865206f776e6572604482015290519081900360640190fd5b73ffffffffffffffffffffffffffffffffffffffff8116612788576040517f08c379a0000000000000000000000000000000000000000000000000000000008152600401808060200182810382526026815260200180613a9d6026913960400191505060405180910390fd5b60075460405173ffffffffffffffffffffffffffffffffffffffff8084169216907f8be0079c531659141344cd1fd0a4f28419497f9722a3daafe3b4186f6b6457e090600090a3600780547fffffffffffffffffffffffff00000000000000000000000000000000000000001673ffffffffffffffffffffffffffffffffffffffff92909216919091179055565b3390565b73ffffffffffffffffffffffffffffffffffffffff8316612886576040517f08c379a0000000000000000000000000000000000000000000000000000000008152600401808060200182810382526024815260200180613bc06024913960400191505060405180910390fd5b73ffffffffffffffffffffffffffffffffffffffff82166128f2576040517f08c379a0000000000000000000000000000000000000000000000000000000008152600401808060200182810382526022815260200180613ac36022913960400191505060405180910390fd5b73ffffffffffffffffffffffffffffffffffffffff808416600081815260016020908152604080832094871680845294825291829020859055815185815291517f8c5be1e5ebec7d5bd14f71427d1e84f3dd0314c0f7b2291e5b200ac8c7c3b9259281900390910190a3505050565b73ffffffffffffffffffffffffffffffffffffffff85166000908152600a6020526040812054819060ff1680156129bd575073ffffffffffffffffffffffffffffffffffffffff86166000908152600a602052604090205460ff165b80156129f557508573ffffffffffffffffffffffffffffffffffffffff168773ffffffffffffffffffffffffffffffffffffffff1614155b8015612a015750600085115b15612aae576000612a30612a29670de0b6b3a7640000610e35612a22612553565b8a90612fbf565b8790613136565b90506000612a4b612a418784612d39565b610e358488612fbf565b90506000612a66612a5c888a612d39565b610e358a89612fbf565b90506000612a72610c0c565b15612a9c57612a97612a8d612a85610c0c565b610e35612553565b610e358486613136565b612a9f565b60005b929550919350612aae92505050565b9550959350505050565b73ffffffffffffffffffffffffffffffffffffffff8316612b24576040517f08c379a0000000000000000000000000000000000000000000000000000000008152600401808060200182810382526025815260200180613b9b6025913960400191505060405180910390fd5b73ffffffffffffffffffffffffffffffffffffffff8216612b90576040517f08c379a0000000000000000000000000000000000000000000000000000000008152600401808060200182810382526023815260200180613a586023913960400191505060405180910390fd5b612b9b838383613131565b612be581604051806060016040528060268152602001613ae56026913973ffffffffffffffffffffffffffffffffffffffff86166000908152602081905260409020549190612c88565b73ffffffffffffffffffffffffffffffffffffffff8085166000908152602081905260408082209390935590841681522054612c219082612d39565b73ffffffffffffffffffffffffffffffffffffffff8084166000818152602081815260409182902094909455805185815290519193928716927fddf252ad1be2c89b69c2b068fc378daa952ba7f163c4a11628f55a4df523b3ef92918290030190a3505050565b60008184841115612d31576040517f08c379a00000000000000000000000000000000000000000000000000000000081526004018080602001828103825283818151815260200191508051906020019080838360005b83811015612cf6578181015183820152602001612cde565b50505050905090810190601f168015612d235780820380516001836020036101000a031916815260200191505b509250505060405180910390fd5b505050900390565b600082820183811015610ba157604080517f08c379a000000000000000000000000000000000000000000000000000000000815260206004820152601b60248201527f536166654d6174683a206164646974696f6e206f766572666c6f770000000000604482015290519081900360640190fd5b73ffffffffffffffffffffffffffffffffffffffff8216612e19576040517f08c379a0000000000000000000000000000000000000000000000000000000008152600401808060200182810382526021815260200180613b7a6021913960400191505060405180910390fd5b612e2582600083613131565b612e6f81604051806060016040528060228152602001613a7b6022913973ffffffffffffffffffffffffffffffffffffffff85166000908152602081905260409020549190612c88565b73ffffffffffffffffffffffffffffffffffffffff8316600090815260208190526040902055600254612ea29082613136565b60025560408051828152905160009173ffffffffffffffffffffffffffffffffffffffff8516917fddf252ad1be2c89b69c2b068fc378daa952ba7f163c4a11628f55a4df523b3ef9181900360200190a35050565b6000612f02836135d5565b15612f25575073ffffffffffffffffffffffffffffffffffffffff811631610ab9565b8273ffffffffffffffffffffffffffffffffffffffff166370a08231836040518263ffffffff1660e01b8152600401808273ffffffffffffffffffffffffffffffffffffffff16815260200191505060206040518083038186803b158015612f8c57600080fd5b505afa158015612fa0573d6000803e3d6000fd5b505050506040513d6020811015612fb657600080fd5b50519050610ab9565b600082612fce57506000610ab9565b82820282848281612fdb57fe5b0414610ba1576040517f08c379a0000000000000000000000000000000000000000000000000000000008152600401808060200182810382526021815260200180613b316021913960400191505060405180910390fd5b60008082116130a257604080517f08c379a000000000000000000000000000000000000000000000000000000000815260206004820152601a60248201527f536166654d6174683a206469766973696f6e206279207a65726f000000000000604482015290519081900360640190fd5b8183816130ab57fe5b049392505050565b8015613131576130c2836135d5565b156131105760405173ffffffffffffffffffffffffffffffffffffffff83169082156108fc029083906000818181858888f1935050505015801561310a573d6000803e3d6000fd5b50613131565b61313173ffffffffffffffffffffffffffffffffffffffff841683836135ef565b505050565b6000828211156131a757604080517f08c379a000000000000000000000000000000000000000000000000000000000815260206004820152601e60248201527f536166654d6174683a207375627472616374696f6e206f766572666c6f770000604482015290519081900360640190fd5b50900390565b6132358461323083610e356131c3826001613136565b604080518082019091528a547affffffffffffffffffffffffffffffffffffffffffffffffffffff811682527b01000000000000000000000000000000000000000000000000000000900464ffffffffff166020820152611f5b90899061322a908c61323b565b90612fbf565b6133cd565b50505050565b60008061326261012c611e84866020015164ffffffffff164261313690919063ffffffff16565b9050600061327261012c83613136565b90506132b061012c610e356132878786612fbf565b8851611f5b907affffffffffffffffffffffffffffffffffffffffffffffffffffff1686612fbf565b95945050505050565b6000818310156132c95781610ba1565b5090919050565b60008183106132c95781610ba1565b80156133c9576132ee826135d5565b156133a7578034101561336257604080517f08c379a000000000000000000000000000000000000000000000000000000000815260206004820152601a60248201527f556e6945524332303a206e6f7420656e6f7567682076616c7565000000000000604482015290519081900360640190fd5b803411156133a257336108fc6133783484613136565b6040518115909202916000818181858888f193505050501580156133a0573d6000803e3d6000fd5b505b6133c9565b6133c973ffffffffffffffffffffffffffffffffffffffff831633308461367c565b5050565b81547fffffffffff000000000000000000000000000000000000000000000000000000167affffffffffffffffffffffffffffffffffffffffffffffffffffff91821617167b010000000000000000000000000000000000000000000000000000004264ffffffffff1602179055565b6040805180820190915282547affffffffffffffffffffffffffffffffffffffffffffffffffffff811682527b01000000000000000000000000000000000000000000000000000000900464ffffffffff1660208201526133c9908390613230908461323b565b73ffffffffffffffffffffffffffffffffffffffff821661352657604080517f08c379a000000000000000000000000000000000000000000000000000000000815260206004820152601f60248201527f45524332303a206d696e7420746f20746865207a65726f206164647265737300604482015290519081900360640190fd5b61353260008383613131565b60025461353f9082612d39565b60025573ffffffffffffffffffffffffffffffffffffffff82166000908152602081905260409020546135729082612d39565b73ffffffffffffffffffffffffffffffffffffffff83166000818152602081815260408083209490945583518581529351929391927fddf252ad1be2c89b69c2b068fc378daa952ba7f163c4a11628f55a4df523b3ef9281900390910190a35050565b73ffffffffffffffffffffffffffffffffffffffff161590565b6040805173ffffffffffffffffffffffffffffffffffffffff8416602482015260448082018490528251808303909101815260649091019091526020810180517bffffffffffffffffffffffffffffffffffffffffffffffffffffffff167fa9059cbb0000000000000000000000000000000000000000000000000000000017905261313190849061370d565b6040805173ffffffffffffffffffffffffffffffffffffffff80861660248301528416604482015260648082018490528251808303909101815260849091019091526020810180517bffffffffffffffffffffffffffffffffffffffffffffffffffffffff167f23b872dd000000000000000000000000000000000000000000000000000000001790526132359085905b606061376f826040518060400160405280602081526020017f5361666545524332303a206c6f772d6c6576656c2063616c6c206661696c65648152508573ffffffffffffffffffffffffffffffffffffffff166137e59092919063ffffffff16565b8051909150156131315780806020019051602081101561378e57600080fd5b5051613131576040517f08c379a000000000000000000000000000000000000000000000000000000000815260040180806020018281038252602a815260200180613be4602a913960400191505060405180910390fd5b60606137f484846000856137fc565b949350505050565b606082471015613857576040517f08c379a0000000000000000000000000000000000000000000000000000000008152600401808060200182810382526026815260200180613b0b6026913960400191505060405180910390fd5b613860856139b7565b6138cb57604080517f08c379a000000000000000000000000000000000000000000000000000000000815260206004820152601d60248201527f416464726573733a2063616c6c20746f206e6f6e2d636f6e7472616374000000604482015290519081900360640190fd5b600060608673ffffffffffffffffffffffffffffffffffffffff1685876040518082805190602001908083835b6020831061393557805182527fffffffffffffffffffffffffffffffffffffffffffffffffffffffffffffffe090920191602091820191016138f8565b6001836020036101000a03801982511681845116808217855250505050505090500191505060006040518083038185875af1925050503d8060008114613997576040519150601f19603f3d011682016040523d82523d6000602084013e61399c565b606091505b50915091506139ac8282866139bd565b979650505050505050565b3b151590565b606083156139cc575081610ba1565b8251156139dc5782518084602001fd5b6040517f08c379a0000000000000000000000000000000000000000000000000000000008152602060048201818152845160248401528451859391928392604401919085019080838360008315612cf6578181015183820152602001612cde565b60405180604001604052806000815260200160008152509056fe45524332303a207472616e7366657220746f20746865207a65726f206164647265737345524332303a206275726e20616d6f756e7420657863656564732062616c616e63654f776e61626c653a206e6577206f776e657220697320746865207a65726f206164647265737345524332303a20617070726f766520746f20746865207a65726f206164647265737345524332303a207472616e7366657220616d6f756e7420657863656564732062616c616e6365416464726573733a20696e73756666696369656e742062616c616e636520666f722063616c6c536166654d6174683a206d756c7469706c69636174696f6e206f766572666c6f7745524332303a207472616e7366657220616d6f756e74206578636565647320616c6c6f77616e636545524332303a206275726e2066726f6d20746865207a65726f206164647265737345524332303a207472616e736665722066726f6d20746865207a65726f206164647265737345524332303a20617070726f76652066726f6d20746865207a65726f20616464726573735361666545524332303a204552433230206f7065726174696f6e20646964206e6f74207375636365656445524332303a2064656372656173656420616c6c6f77616e63652062656c6f77207a65726fa2646970667358221220a5d218a55e1ed111ddb9dd039bd7e9d9c3fd568821f461b19533048beb4176f064736f6c634300060c0033",
  "immutableReferences": {},
  "source": "// SPDX-License-Identifier: MIT\n\npragma solidity ^0.6.0;\n\nimport \"@openzeppelin/contracts/access/Ownable.sol\";\nimport \"@openzeppelin/contracts/utils/ReentrancyGuard.sol\";\nimport \"@openzeppelin/contracts/math/Math.sol\";\nimport \"@openzeppelin/contracts/math/SafeMath.sol\";\nimport \"@openzeppelin/contracts/token/ERC20/ERC20.sol\";\nimport \"./libraries/UniERC20.sol\";\nimport \"./libraries/Sqrt.sol\";\n\ninterface IFactory {\n    function fee() external view returns (uint256);\n\n    function feeVault() external view returns (uint256);\n\n    function addressVault() external view returns (address);\n}\n\nlibrary VirtualBalance {\n    using SafeMath for uint256;\n\n    struct Data {\n        uint216 balance;\n        uint40 time;\n    }\n\n    uint256 public constant DECAY_PERIOD = 5 minutes;\n\n    function set(VirtualBalance.Data storage self, uint256 balance) internal {\n        self.balance = uint216(balance);\n        self.time = uint40(block.timestamp);\n    }\n\n    function update(VirtualBalance.Data storage self, uint256 realBalance)\n        internal\n    {\n        set(self, current(self, realBalance));\n    }\n\n    function scale(\n        VirtualBalance.Data storage self,\n        uint256 realBalance,\n        uint256 num,\n        uint256 denom\n    ) internal {\n        set(\n            self,\n            current(self, realBalance).mul(num).add(denom.sub(1)).div(denom)\n        );\n    }\n\n    function current(VirtualBalance.Data memory self, uint256 realBalance)\n        internal\n        view\n        returns (uint256)\n    {\n        uint256 timePassed =\n            Math.min(DECAY_PERIOD, block.timestamp.sub(self.time));\n        uint256 timeRemain = DECAY_PERIOD.sub(timePassed);\n        return\n            uint256(self.balance)\n                .mul(timeRemain)\n                .add(realBalance.mul(timePassed))\n                .div(DECAY_PERIOD);\n    }\n}\n\ncontract Emiswap is ERC20, ReentrancyGuard, Ownable {\n    using Sqrt for uint256;\n    using SafeMath for uint256;\n    using UniERC20 for IERC20;\n    using VirtualBalance for VirtualBalance.Data;\n\n    struct Balances {\n        uint256 src;\n        uint256 dst;\n    }\n\n    struct SwapVolumes {\n        uint128 confirmed;\n        uint128 result;\n    }\n\n    event Deposited(address indexed account, uint256 amount, address referral);\n\n    event Withdrawn(address indexed account, uint256 amount);\n\n    event Swapped(\n        address indexed account,\n        address indexed src,\n        address indexed dst,\n        uint256 amount,\n        uint256 result,\n        uint256 srcBalance,\n        uint256 dstBalance,\n        uint256 totalSupply,\n        address referral\n    );\n\n    event Swapped2(\n        address indexed account,\n        address indexed to,\n        uint256 resultVault\n    );\n\n    uint256 public constant REFERRAL_SHARE = 20; // 1/share = 5% of LPs revenue\n    uint256 public constant BASE_SUPPLY = 1000; // Total supply on first deposit\n    uint256 public constant FEE_DENOMINATOR = 1e18;\n\n    IFactory public factory;\n    IERC20[] public tokens;\n    mapping(IERC20 => bool) public isToken;\n    mapping(IERC20 => SwapVolumes) public volumes;\n    mapping(IERC20 => VirtualBalance.Data) public virtualBalancesForAddition;\n    mapping(IERC20 => VirtualBalance.Data) public virtualBalancesForRemoval;\n\n    constructor(\n        IERC20[] memory assets,\n        string memory name,\n        string memory symbol\n    )\n        public\n        ERC20(\n            name,\n            symbol /* \"Emiswap LP token\", \"EMI - SWAP\" */\n        )\n    {\n        factory = IFactory(msg.sender);\n        require(bytes(name).length > 0, \"Emiswap: name is empty\");\n        require(bytes(symbol).length > 0, \"Emiswap: symbol is empty\");\n        require(assets.length == 2, \"Emiswap: only 2 tokens allowed\");\n\n        factory = IFactory(msg.sender);\n        tokens = assets;\n        for (uint256 i = 0; i < assets.length; i++) {\n            require(!isToken[assets[i]], \"Emiswap: duplicate tokens\");\n            isToken[assets[i]] = true;\n        }\n    }\n\n    // called once by the factory at time of deployment\n    /* function initialize(IERC20[] memory assets) external {\n        require(msg.sender == address(factory), \"Emiswap: FORBIDDEN\"); // sufficient check\n        require(assets.length == 2, \"Emiswap: only 2 tokens allowed\");\n\n        factory = IFactory(msg.sender);\n        tokens = assets;\n        for (uint256 i = 0; i < assets.length; i++) {\n            require(!isToken[assets[i]], \"Emiswap: duplicate tokens\");\n            isToken[assets[i]] = true;\n        }\n    } */\n\n    function fee() public view returns (uint256) {\n        return factory.fee();\n    }\n\n    function feeVault() public view returns (uint256) {\n        return factory.feeVault();\n    }\n\n    function addressVault() public view returns (address) {\n        return factory.addressVault();\n    }\n\n    function getTokens() external view returns (IERC20[] memory) {\n        return tokens;\n    }\n\n    function decayPeriod() external pure returns (uint256) {\n        return VirtualBalance.DECAY_PERIOD;\n    }\n\n    function getBalanceForAddition(IERC20 token) public view returns (uint256) {\n        uint256 balance = token.uniBalanceOf(address(this));\n        return\n            Math.max(\n                virtualBalancesForAddition[token].current(balance),\n                balance\n            );\n    }\n\n    function getBalanceForRemoval(IERC20 token) public view returns (uint256) {\n        uint256 balance = token.uniBalanceOf(address(this));\n        return\n            Math.min(\n                virtualBalancesForRemoval[token].current(balance),\n                balance\n            );\n    }\n\n    function getReturn(\n        IERC20 src,\n        IERC20 dst,\n        uint256 amount\n    ) external view returns (uint256, uint256) {\n        return\n            _getReturn(\n                src,\n                dst,\n                amount,\n                getBalanceForAddition(src),\n                getBalanceForRemoval(dst)\n            );\n    }\n\n    function deposit(\n        uint256[] calldata amounts,\n        uint256[] calldata minAmounts,\n        address referral\n    ) external nonReentrant returns (uint256 fairSupply) {\n        IERC20[] memory _tokens = tokens;\n        require(\n            (amounts.length > 0) && (amounts.length == _tokens.length),\n            \"Emiswap: wrong amounts length\"\n        );\n        require(\n            (amounts[0] > 0) && (amounts[1] > 0),\n            \"Emiswap: wrong value usage\"\n        );\n\n        uint256[] memory realBalances = new uint256[](amounts.length);\n        for (uint256 i = 0; i < realBalances.length; i++) {\n            realBalances[i] = _tokens[i].uniBalanceOf(address(this));\n        }\n\n        uint256 totalSupply = totalSupply();\n        if (totalSupply == 0) {\n            fairSupply = BASE_SUPPLY.mul(99);\n            _mint(address(this), BASE_SUPPLY); // Donate up to 1%\n\n            // Use the greatest token amount but not less than 99k for the initial supply\n            for (uint256 i = 0; i < amounts.length; i++) {\n                fairSupply = Math.max(fairSupply, amounts[i]);\n            }\n        } else {\n            // Pre-compute fair supply\n            fairSupply = type(uint256).max;\n            for (uint256 i = 0; i < amounts.length; i++) {\n                fairSupply = Math.min(\n                    fairSupply,\n                    totalSupply.mul(amounts[i]).div(realBalances[i])\n                );\n            }\n        }\n\n        uint256 fairSupplyCached = fairSupply;\n        for (uint256 i = 0; i < amounts.length; i++) {\n            require(amounts[i] > 0, \"Emiswap: amount is zero\");\n            uint256 amount =\n                (totalSupply == 0)\n                    ? amounts[i]\n                    : realBalances[i]\n                        .mul(fairSupplyCached)\n                        .add(totalSupply - 1)\n                        .div(totalSupply);\n            require(amount >= minAmounts[i], \"Emiswap: minAmount not reached\");\n\n            _tokens[i].uniTransferFromSenderToThis(amount);\n            if (totalSupply > 0) {\n                uint256 confirmed =\n                    _tokens[i].uniBalanceOf(address(this)).sub(realBalances[i]);\n                fairSupply = Math.min(\n                    fairSupply,\n                    totalSupply.mul(confirmed).div(realBalances[i])\n                );\n            }\n        }\n\n        if (totalSupply > 0) {\n            for (uint256 i = 0; i < amounts.length; i++) {\n                virtualBalancesForRemoval[_tokens[i]].scale(\n                    realBalances[i],\n                    totalSupply.add(fairSupply),\n                    totalSupply\n                );\n                virtualBalancesForAddition[_tokens[i]].scale(\n                    realBalances[i],\n                    totalSupply.add(fairSupply),\n                    totalSupply\n                );\n            }\n        }\n\n        require(fairSupply > 0, \"Emniswap: result is not enough\");\n        _mint(msg.sender, fairSupply);\n\n        emit Deposited(msg.sender, fairSupply, referral);\n    }\n\n    function withdraw(uint256 amount, uint256[] memory minReturns)\n        external\n        nonReentrant\n    {\n        uint256 totalSupply = totalSupply();\n        _burn(msg.sender, amount);\n\n        for (uint256 i = 0; i < tokens.length; i++) {\n            IERC20 token = tokens[i];\n\n            uint256 preBalance = token.uniBalanceOf(address(this));\n            uint256 value = preBalance.mul(amount).div(totalSupply);\n            token.uniTransfer(msg.sender, value);\n            require(\n                i >= minReturns.length || value >= minReturns[i],\n                \"Emiswap: result is not enough\"\n            );\n\n            virtualBalancesForAddition[token].scale(\n                preBalance,\n                totalSupply.sub(amount),\n                totalSupply\n            );\n            virtualBalancesForRemoval[token].scale(\n                preBalance,\n                totalSupply.sub(amount),\n                totalSupply\n            );\n        }\n\n        emit Withdrawn(msg.sender, amount);\n    }\n\n    function swap(\n        IERC20 src,\n        IERC20 dst,\n        uint256 amount,\n        uint256 minReturn,\n        address to,\n        address referral\n    ) external nonReentrant returns (uint256 result) {\n        require(address(src) != address(0), \"Emiswap: only tokens allowed\");\n\n        Balances memory balances =\n            Balances({\n                src: src.uniBalanceOf(address(this)),\n                dst: dst.uniBalanceOf(address(this))\n            });\n\n        // catch possible airdrops and external balance changes for deflationary tokens\n        uint256 srcAdditionBalance =\n            Math.max(\n                virtualBalancesForAddition[src].current(balances.src),\n                balances.src\n            );\n        uint256 dstRemovalBalance =\n            Math.min(\n                virtualBalancesForRemoval[dst].current(balances.dst),\n                balances.dst\n            );\n\n        src.uniTransferFromSenderToThis(amount);\n        uint256 confirmed = src.uniBalanceOf(address(this)).sub(balances.src);\n\n        uint256 resultVault;\n        (result, resultVault) = _getReturn(\n            src,\n            dst,\n            confirmed,\n            srcAdditionBalance,\n            dstRemovalBalance\n        );\n        require(\n            result > 0 && result >= minReturn,\n            \"Emiswap: return is not enough\"\n        );\n        dst.uniTransfer(payable(to), result);\n        if (resultVault > 0) {\n            dst.uniTransfer(payable(addressVault()), resultVault);\n        }\n\n        // Update virtual balances to the same direction only at imbalanced state\n        if (srcAdditionBalance != balances.src) {\n            virtualBalancesForAddition[src].set(\n                srcAdditionBalance.add(confirmed)\n            );\n        }\n        if (dstRemovalBalance != balances.dst) {\n            virtualBalancesForRemoval[dst].set(dstRemovalBalance.sub(result));\n        }\n\n        // Update virtual balances to the opposite direction\n        virtualBalancesForRemoval[src].update(balances.src);\n        virtualBalancesForAddition[dst].update(balances.dst);\n\n        emit Swapped(\n            msg.sender,\n            address(src),\n            address(dst),\n            confirmed,\n            result,\n            balances.src,\n            balances.dst,\n            totalSupply(),\n            referral\n        );\n        emit Swapped2(msg.sender, to, resultVault);\n\n        // Overflow of uint128 is desired\n        volumes[src].confirmed += uint128(confirmed);\n        volumes[src].result += uint128(result);\n    }\n\n    function rescueFunds(IERC20 token, uint256 amount)\n        external\n        nonReentrant\n        onlyOwner\n    {\n        uint256[] memory balances = new uint256[](tokens.length);\n        for (uint256 i = 0; i < balances.length; i++) {\n            balances[i] = tokens[i].uniBalanceOf(address(this));\n        }\n\n        token.uniTransfer(msg.sender, amount);\n\n        for (uint256 i = 0; i < balances.length; i++) {\n            require(\n                tokens[i].uniBalanceOf(address(this)) >= balances[i],\n                \"Emiswap: access denied\"\n            );\n        }\n        require(\n            balanceOf(address(this)) >= BASE_SUPPLY,\n            \"Emiswap: access denied\"\n        );\n    }\n\n    function _getReturn(\n        IERC20 src,\n        IERC20 dst,\n        uint256 amount,\n        uint256 srcBalance,\n        uint256 dstBalance\n    ) internal view returns (uint256, uint256) {\n        if (isToken[src] && isToken[dst] && src != dst && amount > 0) {\n            uint256 taxedAmount =\n                amount.sub(amount.mul(fee()).div(FEE_DENOMINATOR));\n            uint256 resWFee =\n                taxedAmount.mul(dstBalance).div(srcBalance.add(taxedAmount));\n            uint256 resWOFee =\n                amount.mul(dstBalance).div(srcBalance.add(amount));\n            uint256 resVault =\n                (\n                    feeVault() == 0\n                        ? 0\n                        : resWOFee.sub(resWFee).div(fee().div(feeVault()))\n                );\n\n            return (resWFee, resVault);\n        }\n    }\n}\n",
  "sourcePath": "/home/maksim/emirex/internal/emiswap/contracts/Emiswap2.sol",
  "compiler": {
    "name": "solc",
    "version": "0.6.12+commit.27d51765.Emscripten.clang"
  },
  "schemaVersion": "3.3.3",
  "updatedAt": "2021-02-10T19:36:11.301Z",
  "devdoc": {
    "kind": "dev",
    "methods": {
      "allowance(address,address)": {
        "details": "See {IERC20-allowance}."
      },
      "approve(address,uint256)": {
        "details": "See {IERC20-approve}. Requirements: - `spender` cannot be the zero address."
      },
      "balanceOf(address)": {
        "details": "See {IERC20-balanceOf}."
      },
      "decimals()": {
        "details": "Returns the number of decimals used to get its user representation. For example, if `decimals` equals `2`, a balance of `505` tokens should be displayed to a user as `5,05` (`505 / 10 ** 2`). Tokens usually opt for a value of 18, imitating the relationship between Ether and Wei. This is the value {ERC20} uses, unless {_setupDecimals} is called. NOTE: This information is only used for _display_ purposes: it in no way affects any of the arithmetic of the contract, including {IERC20-balanceOf} and {IERC20-transfer}."
      },
      "decreaseAllowance(address,uint256)": {
        "details": "Atomically decreases the allowance granted to `spender` by the caller. This is an alternative to {approve} that can be used as a mitigation for problems described in {IERC20-approve}. Emits an {Approval} event indicating the updated allowance. Requirements: - `spender` cannot be the zero address. - `spender` must have allowance for the caller of at least `subtractedValue`."
      },
      "increaseAllowance(address,uint256)": {
        "details": "Atomically increases the allowance granted to `spender` by the caller. This is an alternative to {approve} that can be used as a mitigation for problems described in {IERC20-approve}. Emits an {Approval} event indicating the updated allowance. Requirements: - `spender` cannot be the zero address."
      },
      "name()": {
        "details": "Returns the name of the token."
      },
      "owner()": {
        "details": "Returns the address of the current owner."
      },
      "renounceOwnership()": {
        "details": "Leaves the contract without owner. It will not be possible to call `onlyOwner` functions anymore. Can only be called by the current owner. NOTE: Renouncing ownership will leave the contract without an owner, thereby removing any functionality that is only available to the owner."
      },
      "symbol()": {
        "details": "Returns the symbol of the token, usually a shorter version of the name."
      },
      "totalSupply()": {
        "details": "See {IERC20-totalSupply}."
      },
      "transfer(address,uint256)": {
        "details": "See {IERC20-transfer}. Requirements: - `recipient` cannot be the zero address. - the caller must have a balance of at least `amount`."
      },
      "transferFrom(address,address,uint256)": {
        "details": "See {IERC20-transferFrom}. Emits an {Approval} event indicating the updated allowance. This is not required by the EIP. See the note at the beginning of {ERC20}. Requirements: - `sender` and `recipient` cannot be the zero address. - `sender` must have a balance of at least `amount`. - the caller must have allowance for ``sender``'s tokens of at least `amount`."
      },
      "transferOwnership(address)": {
        "details": "Transfers ownership of the contract to a new account (`newOwner`). Can only be called by the current owner."
      }
    },
    "version": 1
  },
  "userdoc": {
    "kind": "user",
    "methods": {},
    "version": 1
  }
}